{
  "address": "0xA93d9DA92B77F2d633aE47F2df3B5DaFc5B63f74",
  "abi": [
    {
      "inputs": [
        {
          "internalType": "contract IPoolAddressesProvider",
          "name": "provider",
          "type": "address"
        },
        {
          "internalType": "address",
          "name": "_pythAddress",
          "type": "address"
        },
        {
          "internalType": "address[]",
          "name": "assets",
          "type": "address[]"
        },
        {
          "internalType": "bytes32[]",
          "name": "sources",
          "type": "bytes32[]"
        },
        {
          "internalType": "address",
          "name": "baseCurrency",
          "type": "address"
        },
        {
          "internalType": "uint256",
          "name": "baseCurrencyUnit",
          "type": "uint256"
        }
      ],
      "stateMutability": "nonpayable",
      "type": "constructor"
    },
    {
      "anonymous": false,
      "inputs": [
        {
          "indexed": true,
          "internalType": "address",
          "name": "asset",
          "type": "address"
        },
        {
          "indexed": true,
          "internalType": "bytes32",
          "name": "source",
          "type": "bytes32"
        }
      ],
      "name": "AssetSourceUpdated",
      "type": "event"
    },
    {
      "anonymous": false,
      "inputs": [
        {
          "indexed": true,
          "internalType": "address",
          "name": "baseCurrency",
          "type": "address"
        },
        {
          "indexed": false,
          "internalType": "uint256",
          "name": "baseCurrencyUnit",
          "type": "uint256"
        }
      ],
      "name": "BaseCurrencySet",
      "type": "event"
    },
    {
      "inputs": [],
      "name": "ADDRESSES_PROVIDER",
      "outputs": [
        {
          "internalType": "contract IPoolAddressesProvider",
          "name": "",
          "type": "address"
        }
      ],
      "stateMutability": "view",
      "type": "function"
    },
    {
      "inputs": [],
      "name": "BASE_CURRENCY",
      "outputs": [
        {
          "internalType": "address",
          "name": "",
          "type": "address"
        }
      ],
      "stateMutability": "view",
      "type": "function"
    },
    {
      "inputs": [],
      "name": "BASE_CURRENCY_UNIT",
      "outputs": [
        {
          "internalType": "uint256",
          "name": "",
          "type": "uint256"
        }
      ],
      "stateMutability": "view",
      "type": "function"
    },
    {
      "inputs": [
        {
          "internalType": "address",
          "name": "asset",
          "type": "address"
        }
      ],
      "name": "getAssetPrice",
      "outputs": [
        {
          "internalType": "uint256",
          "name": "",
          "type": "uint256"
        }
      ],
      "stateMutability": "view",
      "type": "function"
    },
    {
      "inputs": [
        {
          "internalType": "address[]",
          "name": "assets",
          "type": "address[]"
        }
      ],
      "name": "getAssetsPrices",
      "outputs": [
        {
          "internalType": "uint256[]",
          "name": "",
          "type": "uint256[]"
        }
      ],
      "stateMutability": "view",
      "type": "function"
    },
    {
      "inputs": [
        {
          "internalType": "address",
          "name": "asset",
          "type": "address"
        }
      ],
      "name": "getSourceOfAsset",
      "outputs": [
        {
          "internalType": "bytes32",
          "name": "",
          "type": "bytes32"
        }
      ],
      "stateMutability": "view",
      "type": "function"
    },
    {
      "inputs": [],
      "name": "pyth",
      "outputs": [
        {
          "internalType": "contract IPyth",
          "name": "",
          "type": "address"
        }
      ],
      "stateMutability": "view",
      "type": "function"
    },
    {
      "inputs": [
        {
          "internalType": "address[]",
          "name": "assets",
          "type": "address[]"
        },
        {
          "internalType": "bytes32[]",
          "name": "feedIds",
          "type": "bytes32[]"
        }
      ],
      "name": "setPriceFeedIds",
      "outputs": [],
      "stateMutability": "nonpayable",
      "type": "function"
    }
  ],
  "transactionHash": "0x4ed1279a3e8f734ac3265e4a3c8f8ddf01abfe460799863aa73e914d01700adb",
  "args": [
    "0xc0d03D8249eD557aB1c54f46d0dc13a0C0678f25",
    "0x4374e5a8b9C22271E9EB878A2AA31DE97DF15DAF",
    [
      "0xc9c413301718A73641771c923971Bf9732f69302",
      "0xE7C6103D557bc211152950e9dA679857907De3A2",
      "0xA77DD779a4cfc9a3FAB9973c54A2A3735DaFb54a"
    ],
    [
      "0xeaa020c61cc479712813461ce153894a96a6c00b21ed0cfc2798d1f9a9e9c94a",
      "0xeaa020c61cc479712813461ce153894a96a6c00b21ed0cfc2798d1f9a9e9c94a",
      "0x9d4294bbcd1174d6f2003ec365831e64cc31d9f6f15a2b85399db8d5000960f6"
    ],
    "0x0000000000000000000000000000000000000000",
    "100000000"
  ],
  "numDeployments": 1,
  "solcInputHash": "1eaa4365c44e38f8790053afb1c34d22",
  "bytecode": "0x6101006040523480156200001257600080fd5b5060405162001172380380620011728339810160408190526200003591620002f6565b6001600160a01b03808716608052851660a052620000548484620000a7565b6001600160a01b03821660c081905260e08290526040518281527fe27c4c1372396a3d15a9922f74f9dfc7c72b1ad6d63868470787249c356454c19060200160405180910390a2505050505050620004a7565b8051825114604051806040016040528060028152602001611b9b60f11b81525090620000f15760405162461bcd60e51b8152600401620000e891906200040f565b60405180910390fd5b5060005b8251811015620001e45781818151811062000114576200011462000467565b602002602001015160008085848151811062000134576200013462000467565b60200260200101516001600160a01b03166001600160a01b031681526020019081526020016000208190555081818151811062000175576200017562000467565b602002602001015183828151811062000192576200019262000467565b60200260200101516001600160a01b03167fdcb94a871091cc58901744f251f3df654c2e3c2a5745ed991e2e2457255324b960405160405180910390a380620001db816200047d565b915050620000f5565b505050565b6001600160a01b0381168114620001ff57600080fd5b50565b80516200020f81620001e9565b919050565b634e487b7160e01b600052604160045260246000fd5b604051601f8201601f191681016001600160401b038111828210171562000255576200025562000214565b604052919050565b60006001600160401b0382111562000279576200027962000214565b5060051b60200190565b600082601f8301126200029557600080fd5b81516020620002ae620002a8836200025d565b6200022a565b82815260059290921b84018101918181019086841115620002ce57600080fd5b8286015b84811015620002eb5780518352918301918301620002d2565b509695505050505050565b60008060008060008060c087890312156200031057600080fd5b86516200031d81620001e9565b809650506020808801516200033281620001e9565b60408901519096506001600160401b03808211156200035057600080fd5b818a0191508a601f8301126200036557600080fd5b815162000376620002a8826200025d565b81815260059190911b8301840190848101908d8311156200039657600080fd5b938501935b82851015620003c1578451620003b181620001e9565b825293850193908501906200039b565b60608d01519099509450505080831115620003db57600080fd5b5050620003eb89828a0162000283565b935050620003fc6080880162000202565b915060a087015190509295509295509295565b600060208083528351808285015260005b818110156200043e5785810183015185820160400152820162000420565b8181111562000451576000604083870101525b50601f01601f1916929092016040019392505050565b634e487b7160e01b600052603260045260246000fd5b6000600019821415620004a057634e487b7160e01b600052601160045260246000fd5b5060010190565b60805160a05160c05160e051610c77620004fb6000396000818160e301526102ec01526000818161019601526102c10152600081816101bd0152610343015260008181609201526104cc0152610c776000f3fe608060405234801561001057600080fd5b50600436106100885760003560e01c8063b3596f071161005b578063b3596f0714610169578063b6a9f5d31461017c578063e19f470014610191578063f98d06f0146101b857600080fd5b80630542975c1461008d5780638c89b64f146100de57806392bf2be0146101135780639d23d9f214610149575b600080fd5b6100b47f000000000000000000000000000000000000000000000000000000000000000081565b60405173ffffffffffffffffffffffffffffffffffffffff90911681526020015b60405180910390f35b6101057f000000000000000000000000000000000000000000000000000000000000000081565b6040519081526020016100d5565b610105610121366004610897565b73ffffffffffffffffffffffffffffffffffffffff1660009081526020819052604090205490565b61015c610157366004610907565b6101df565b6040516100d59190610949565b610105610177366004610897565b610294565b61018f61018a36600461098d565b61044d565b005b6100b47f000000000000000000000000000000000000000000000000000000000000000081565b6100b47f000000000000000000000000000000000000000000000000000000000000000081565b606060008267ffffffffffffffff8111156101fc576101fc6109f9565b604051908082528060200260200182016040528015610225578160200160208202803683370190505b50905060005b8381101561028c5761025d85858381811061024857610248610a28565b90506020020160208101906101779190610897565b82828151811061026f5761026f610a28565b60209081029190910101528061028481610a57565b91505061022b565b509392505050565b73ffffffffffffffffffffffffffffffffffffffff808216600081815260208190526040812054909290917f0000000000000000000000000000000000000000000000000000000000000000909116141561031157507f000000000000000000000000000000000000000000000000000000000000000092915050565b6040517f96834ad3000000000000000000000000000000000000000000000000000000008152600481018290526000907f000000000000000000000000000000000000000000000000000000000000000073ffffffffffffffffffffffffffffffffffffffff16906396834ad390602401608060405180830381865afa15801561039f573d6000803e3d6000fd5b505050506040513d601f19601f820116820180604052508101906103c39190610ae6565b90506000816000015160070b1361043b576040517f08c379a000000000000000000000000000000000000000000000000000000000815260206004820152601260248201527f496e76616c69642050797468207072696365000000000000000000000000000060448201526064015b60405180910390fd5b5167ffffffffffffffff169392505050565b6104556104c8565b6104c2848480806020026020016040519081016040528093929190818152602001838360200280828437600092019190915250506040805160208088028281018201909352878252909350879250869182918501908490808284376000920191909152506106f092505050565b50505050565b60007f000000000000000000000000000000000000000000000000000000000000000073ffffffffffffffffffffffffffffffffffffffff1663707cd7166040518163ffffffff1660e01b8152600401602060405180830381865afa158015610535573d6000803e3d6000fd5b505050506040513d601f19601f820116820180604052508101906105599190610b8f565b6040517f13ee32e000000000000000000000000000000000000000000000000000000000815233600482015290915073ffffffffffffffffffffffffffffffffffffffff8216906313ee32e090602401602060405180830381865afa1580156105c6573d6000803e3d6000fd5b505050506040513d601f19601f820116820180604052508101906105ea9190610bac565b8061067e57506040517f7be53ca100000000000000000000000000000000000000000000000000000000815233600482015273ffffffffffffffffffffffffffffffffffffffff821690637be53ca190602401602060405180830381865afa15801561065a573d6000803e3d6000fd5b505050506040513d601f19601f8201168201806040525081019061067e9190610bac565b6040518060400160405280600181526020017f3500000000000000000000000000000000000000000000000000000000000000815250906106ec576040517f08c379a00000000000000000000000000000000000000000000000000000000081526004016104329190610bce565b5050565b80518251146040518060400160405280600281526020017f373600000000000000000000000000000000000000000000000000000000000081525090610763576040517f08c379a00000000000000000000000000000000000000000000000000000000081526004016104329190610bce565b5060005b825181101561086d5781818151811061078257610782610a28565b602002602001015160008085848151811061079f5761079f610a28565b602002602001015173ffffffffffffffffffffffffffffffffffffffff1673ffffffffffffffffffffffffffffffffffffffff168152602001908152602001600020819055508181815181106107f7576107f7610a28565b602002602001015183828151811061081157610811610a28565b602002602001015173ffffffffffffffffffffffffffffffffffffffff167fdcb94a871091cc58901744f251f3df654c2e3c2a5745ed991e2e2457255324b960405160405180910390a38061086581610a57565b915050610767565b505050565b73ffffffffffffffffffffffffffffffffffffffff8116811461089457600080fd5b50565b6000602082840312156108a957600080fd5b81356108b481610872565b9392505050565b60008083601f8401126108cd57600080fd5b50813567ffffffffffffffff8111156108e557600080fd5b6020830191508360208260051b850101111561090057600080fd5b9250929050565b6000806020838503121561091a57600080fd5b823567ffffffffffffffff81111561093157600080fd5b61093d858286016108bb565b90969095509350505050565b6020808252825182820181905260009190848201906040850190845b8181101561098157835183529284019291840191600101610965565b50909695505050505050565b600080600080604085870312156109a357600080fd5b843567ffffffffffffffff808211156109bb57600080fd5b6109c7888389016108bb565b909650945060208701359150808211156109e057600080fd5b506109ed878288016108bb565b95989497509550505050565b7f4e487b7100000000000000000000000000000000000000000000000000000000600052604160045260246000fd5b7f4e487b7100000000000000000000000000000000000000000000000000000000600052603260045260246000fd5b60007fffffffffffffffffffffffffffffffffffffffffffffffffffffffffffffffff821415610ab0577f4e487b7100000000000000000000000000000000000000000000000000000000600052601160045260246000fd5b5060010190565b805167ffffffffffffffff81168114610acf57600080fd5b919050565b8051600381900b8114610acf57600080fd5b600060808284031215610af857600080fd5b6040516080810181811067ffffffffffffffff82111715610b42577f4e487b7100000000000000000000000000000000000000000000000000000000600052604160045260246000fd5b6040528251600781900b8114610b5757600080fd5b8152610b6560208401610ab7565b6020820152610b7660408401610ad4565b6040820152606083015160608201528091505092915050565b600060208284031215610ba157600080fd5b81516108b481610872565b600060208284031215610bbe57600080fd5b815180151581146108b457600080fd5b600060208083528351808285015260005b81811015610bfb57858101830151858201604001528201610bdf565b81811115610c0d576000604083870101525b50601f017fffffffffffffffffffffffffffffffffffffffffffffffffffffffffffffffe01692909201604001939250505056fea264697066735822122093c462546925e6ca2875ad8bde2f0cbc88ead3d8d4d08c26f5eab1e95ec47a4064736f6c634300080a0033",
  "devdoc": {
    "kind": "dev",
    "methods": {
      "constructor": {
        "params": {
          "_pythAddress": "The address of the Pyth contract",
          "assets": "The addresses of the assets",
          "baseCurrency": "The base currency used for the price quotes",
          "baseCurrencyUnit": "The unit of the base currency",
          "provider": "The address of the PoolAddressesProvider",
          "sources": "The address of the source of each asset"
        }
      },
      "getAssetPrice(address)": {
        "params": {
          "asset": "The address of the asset"
        },
        "returns": {
          "_0": "The price of the asset"
        }
      },
      "getAssetsPrices(address[])": {
        "params": {
          "assets": "The list of assets addresses"
        },
        "returns": {
          "_0": "The prices of the given assets"
        }
      },
      "getSourceOfAsset(address)": {
        "params": {
          "asset": "The address of the asset"
        },
        "returns": {
          "_0": "The address of the source"
        }
      },
      "setPriceFeedIds(address[],bytes32[])": {
        "params": {
          "assets": "The address of the asset",
          "feedIds": "The Pyth price feed ID for the asset"
        }
      }
    },
    "stateVariables": {
      "ADDRESSES_PROVIDER": {
        "return": "The address of the PoolAddressesProvider contract",
        "returns": {
          "_0": "The address of the PoolAddressesProvider contract"
        }
      },
      "BASE_CURRENCY": {
        "details": "Address 0x0 is reserved for USD as base currency.",
        "return": "Returns the base currency address.",
        "returns": {
          "_0": "Returns the base currency address."
        }
      },
      "BASE_CURRENCY_UNIT": {
        "details": "1 ether for ETH, 1e8 for USD.",
        "return": "Returns the base currency unit.",
        "returns": {
          "_0": "Returns the base currency unit."
        }
      }
    },
    "title": "AaveOracle",
    "version": 1
  },
  "userdoc": {
    "kind": "user",
    "methods": {
      "ADDRESSES_PROVIDER()": {
        "notice": "Returns the PoolAddressesProvider"
      },
      "BASE_CURRENCY()": {
        "notice": "Returns the base currency address"
      },
      "BASE_CURRENCY_UNIT()": {
        "notice": "Returns the base currency unit"
      },
      "constructor": {
        "notice": "Constructor"
      },
      "getAssetPrice(address)": {
        "notice": "Returns the asset price in the base currency"
      },
      "getAssetsPrices(address[])": {
        "notice": "Returns a list of prices from a list of assets addresses"
      },
      "getSourceOfAsset(address)": {
        "notice": "Returns the address of the source for an asset address"
      },
      "setPriceFeedIds(address[],bytes32[])": {
        "notice": "Sets the Pyth price feed ID for an asset"
      }
    },
    "notice": "Contract to fetch asset prices from Pyth",
    "version": 1
  },
  "storageLayout": {
    "storage": [
      {
        "astId": 6546,
        "contract": "contracts/core-v3/misc/AaveOracle.sol:AaveOracle",
        "label": "priceFeedIds",
        "offset": 0,
        "slot": "0",
        "type": "t_mapping(t_address,t_bytes32)"
      }
    ],
    "types": {
      "t_address": {
        "encoding": "inplace",
        "label": "address",
        "numberOfBytes": "20"
      },
      "t_bytes32": {
        "encoding": "inplace",
        "label": "bytes32",
        "numberOfBytes": "32"
      },
      "t_mapping(t_address,t_bytes32)": {
        "encoding": "mapping",
        "key": "t_address",
        "label": "mapping(address => bytes32)",
        "numberOfBytes": "32",
        "value": "t_bytes32"
      }
    }
  }
}