{
  "address": "0x1Ad54A3F7ACAFC0e2428DFC90980551890f45943",
  "abi": [
    {
      "inputs": [
        {
          "internalType": "contract IPool",
          "name": "pool",
          "type": "address"
        }
      ],
      "stateMutability": "nonpayable",
      "type": "constructor"
    },
    {
      "anonymous": false,
      "inputs": [
        {
          "indexed": true,
          "internalType": "address",
          "name": "owner",
          "type": "address"
        },
        {
          "indexed": true,
          "internalType": "address",
          "name": "spender",
          "type": "address"
        },
        {
          "indexed": false,
          "internalType": "uint256",
          "name": "value",
          "type": "uint256"
        }
      ],
      "name": "Approval",
      "type": "event"
    },
    {
      "anonymous": false,
      "inputs": [
        {
          "indexed": true,
          "internalType": "address",
          "name": "from",
          "type": "address"
        },
        {
          "indexed": true,
          "internalType": "address",
          "name": "to",
          "type": "address"
        },
        {
          "indexed": false,
          "internalType": "uint256",
          "name": "value",
          "type": "uint256"
        },
        {
          "indexed": false,
          "internalType": "uint256",
          "name": "index",
          "type": "uint256"
        }
      ],
      "name": "BalanceTransfer",
      "type": "event"
    },
    {
      "anonymous": false,
      "inputs": [
        {
          "indexed": true,
          "internalType": "address",
          "name": "from",
          "type": "address"
        },
        {
          "indexed": true,
          "internalType": "address",
          "name": "target",
          "type": "address"
        },
        {
          "indexed": false,
          "internalType": "uint256",
          "name": "value",
          "type": "uint256"
        },
        {
          "indexed": false,
          "internalType": "uint256",
          "name": "balanceIncrease",
          "type": "uint256"
        },
        {
          "indexed": false,
          "internalType": "uint256",
          "name": "index",
          "type": "uint256"
        }
      ],
      "name": "Burn",
      "type": "event"
    },
    {
      "anonymous": false,
      "inputs": [
        {
          "indexed": true,
          "internalType": "address",
          "name": "delegatee",
          "type": "address"
        }
      ],
      "name": "DelegateUnderlyingTo",
      "type": "event"
    },
    {
      "anonymous": false,
      "inputs": [
        {
          "indexed": true,
          "internalType": "address",
          "name": "underlyingAsset",
          "type": "address"
        },
        {
          "indexed": true,
          "internalType": "address",
          "name": "pool",
          "type": "address"
        },
        {
          "indexed": false,
          "internalType": "address",
          "name": "treasury",
          "type": "address"
        },
        {
          "indexed": false,
          "internalType": "address",
          "name": "incentivesController",
          "type": "address"
        },
        {
          "indexed": false,
          "internalType": "uint8",
          "name": "aTokenDecimals",
          "type": "uint8"
        },
        {
          "indexed": false,
          "internalType": "string",
          "name": "aTokenName",
          "type": "string"
        },
        {
          "indexed": false,
          "internalType": "string",
          "name": "aTokenSymbol",
          "type": "string"
        },
        {
          "indexed": false,
          "internalType": "bytes",
          "name": "params",
          "type": "bytes"
        }
      ],
      "name": "Initialized",
      "type": "event"
    },
    {
      "anonymous": false,
      "inputs": [
        {
          "indexed": true,
          "internalType": "address",
          "name": "caller",
          "type": "address"
        },
        {
          "indexed": true,
          "internalType": "address",
          "name": "onBehalfOf",
          "type": "address"
        },
        {
          "indexed": false,
          "internalType": "uint256",
          "name": "value",
          "type": "uint256"
        },
        {
          "indexed": false,
          "internalType": "uint256",
          "name": "balanceIncrease",
          "type": "uint256"
        },
        {
          "indexed": false,
          "internalType": "uint256",
          "name": "index",
          "type": "uint256"
        }
      ],
      "name": "Mint",
      "type": "event"
    },
    {
      "anonymous": false,
      "inputs": [
        {
          "indexed": true,
          "internalType": "address",
          "name": "from",
          "type": "address"
        },
        {
          "indexed": true,
          "internalType": "address",
          "name": "to",
          "type": "address"
        },
        {
          "indexed": false,
          "internalType": "uint256",
          "name": "value",
          "type": "uint256"
        }
      ],
      "name": "Transfer",
      "type": "event"
    },
    {
      "inputs": [],
      "name": "ATOKEN_REVISION",
      "outputs": [
        {
          "internalType": "uint256",
          "name": "",
          "type": "uint256"
        }
      ],
      "stateMutability": "view",
      "type": "function"
    },
    {
      "inputs": [],
      "name": "DOMAIN_SEPARATOR",
      "outputs": [
        {
          "internalType": "bytes32",
          "name": "",
          "type": "bytes32"
        }
      ],
      "stateMutability": "view",
      "type": "function"
    },
    {
      "inputs": [],
      "name": "EIP712_REVISION",
      "outputs": [
        {
          "internalType": "bytes",
          "name": "",
          "type": "bytes"
        }
      ],
      "stateMutability": "view",
      "type": "function"
    },
    {
      "inputs": [],
      "name": "PERMIT_TYPEHASH",
      "outputs": [
        {
          "internalType": "bytes32",
          "name": "",
          "type": "bytes32"
        }
      ],
      "stateMutability": "view",
      "type": "function"
    },
    {
      "inputs": [],
      "name": "POOL",
      "outputs": [
        {
          "internalType": "contract IPool",
          "name": "",
          "type": "address"
        }
      ],
      "stateMutability": "view",
      "type": "function"
    },
    {
      "inputs": [],
      "name": "RESERVE_TREASURY_ADDRESS",
      "outputs": [
        {
          "internalType": "address",
          "name": "",
          "type": "address"
        }
      ],
      "stateMutability": "view",
      "type": "function"
    },
    {
      "inputs": [],
      "name": "UNDERLYING_ASSET_ADDRESS",
      "outputs": [
        {
          "internalType": "address",
          "name": "",
          "type": "address"
        }
      ],
      "stateMutability": "view",
      "type": "function"
    },
    {
      "inputs": [
        {
          "internalType": "address",
          "name": "owner",
          "type": "address"
        },
        {
          "internalType": "address",
          "name": "spender",
          "type": "address"
        }
      ],
      "name": "allowance",
      "outputs": [
        {
          "internalType": "uint256",
          "name": "",
          "type": "uint256"
        }
      ],
      "stateMutability": "view",
      "type": "function"
    },
    {
      "inputs": [
        {
          "internalType": "address",
          "name": "spender",
          "type": "address"
        },
        {
          "internalType": "uint256",
          "name": "amount",
          "type": "uint256"
        }
      ],
      "name": "approve",
      "outputs": [
        {
          "internalType": "bool",
          "name": "",
          "type": "bool"
        }
      ],
      "stateMutability": "nonpayable",
      "type": "function"
    },
    {
      "inputs": [
        {
          "internalType": "address",
          "name": "user",
          "type": "address"
        }
      ],
      "name": "balanceOf",
      "outputs": [
        {
          "internalType": "uint256",
          "name": "",
          "type": "uint256"
        }
      ],
      "stateMutability": "view",
      "type": "function"
    },
    {
      "inputs": [
        {
          "internalType": "address",
          "name": "from",
          "type": "address"
        },
        {
          "internalType": "address",
          "name": "receiverOfUnderlying",
          "type": "address"
        },
        {
          "internalType": "uint256",
          "name": "amount",
          "type": "uint256"
        },
        {
          "internalType": "uint256",
          "name": "index",
          "type": "uint256"
        }
      ],
      "name": "burn",
      "outputs": [],
      "stateMutability": "nonpayable",
      "type": "function"
    },
    {
      "inputs": [],
      "name": "decimals",
      "outputs": [
        {
          "internalType": "uint8",
          "name": "",
          "type": "uint8"
        }
      ],
      "stateMutability": "view",
      "type": "function"
    },
    {
      "inputs": [
        {
          "internalType": "address",
          "name": "spender",
          "type": "address"
        },
        {
          "internalType": "uint256",
          "name": "subtractedValue",
          "type": "uint256"
        }
      ],
      "name": "decreaseAllowance",
      "outputs": [
        {
          "internalType": "bool",
          "name": "",
          "type": "bool"
        }
      ],
      "stateMutability": "nonpayable",
      "type": "function"
    },
    {
      "inputs": [
        {
          "internalType": "address",
          "name": "delegatee",
          "type": "address"
        }
      ],
      "name": "delegateUnderlyingTo",
      "outputs": [],
      "stateMutability": "nonpayable",
      "type": "function"
    },
    {
      "inputs": [],
      "name": "getIncentivesController",
      "outputs": [
        {
          "internalType": "contract IAaveIncentivesController",
          "name": "",
          "type": "address"
        }
      ],
      "stateMutability": "view",
      "type": "function"
    },
    {
      "inputs": [
        {
          "internalType": "address",
          "name": "user",
          "type": "address"
        }
      ],
      "name": "getPreviousIndex",
      "outputs": [
        {
          "internalType": "uint256",
          "name": "",
          "type": "uint256"
        }
      ],
      "stateMutability": "view",
      "type": "function"
    },
    {
      "inputs": [
        {
          "internalType": "address",
          "name": "user",
          "type": "address"
        }
      ],
      "name": "getScaledUserBalanceAndSupply",
      "outputs": [
        {
          "internalType": "uint256",
          "name": "",
          "type": "uint256"
        },
        {
          "internalType": "uint256",
          "name": "",
          "type": "uint256"
        }
      ],
      "stateMutability": "view",
      "type": "function"
    },
    {
      "inputs": [
        {
          "internalType": "address",
          "name": "user",
          "type": "address"
        },
        {
          "internalType": "address",
          "name": "onBehalfOf",
          "type": "address"
        },
        {
          "internalType": "uint256",
          "name": "amount",
          "type": "uint256"
        }
      ],
      "name": "handleRepayment",
      "outputs": [],
      "stateMutability": "nonpayable",
      "type": "function"
    },
    {
      "inputs": [
        {
          "internalType": "address",
          "name": "spender",
          "type": "address"
        },
        {
          "internalType": "uint256",
          "name": "addedValue",
          "type": "uint256"
        }
      ],
      "name": "increaseAllowance",
      "outputs": [
        {
          "internalType": "bool",
          "name": "",
          "type": "bool"
        }
      ],
      "stateMutability": "nonpayable",
      "type": "function"
    },
    {
      "inputs": [
        {
          "internalType": "contract IPool",
          "name": "initializingPool",
          "type": "address"
        },
        {
          "internalType": "address",
          "name": "treasury",
          "type": "address"
        },
        {
          "internalType": "address",
          "name": "underlyingAsset",
          "type": "address"
        },
        {
          "internalType": "contract IAaveIncentivesController",
          "name": "incentivesController",
          "type": "address"
        },
        {
          "internalType": "uint8",
          "name": "aTokenDecimals",
          "type": "uint8"
        },
        {
          "internalType": "string",
          "name": "aTokenName",
          "type": "string"
        },
        {
          "internalType": "string",
          "name": "aTokenSymbol",
          "type": "string"
        },
        {
          "internalType": "bytes",
          "name": "params",
          "type": "bytes"
        }
      ],
      "name": "initialize",
      "outputs": [],
      "stateMutability": "nonpayable",
      "type": "function"
    },
    {
      "inputs": [
        {
          "internalType": "address",
          "name": "caller",
          "type": "address"
        },
        {
          "internalType": "address",
          "name": "onBehalfOf",
          "type": "address"
        },
        {
          "internalType": "uint256",
          "name": "amount",
          "type": "uint256"
        },
        {
          "internalType": "uint256",
          "name": "index",
          "type": "uint256"
        }
      ],
      "name": "mint",
      "outputs": [
        {
          "internalType": "bool",
          "name": "",
          "type": "bool"
        }
      ],
      "stateMutability": "nonpayable",
      "type": "function"
    },
    {
      "inputs": [
        {
          "internalType": "uint256",
          "name": "amount",
          "type": "uint256"
        },
        {
          "internalType": "uint256",
          "name": "index",
          "type": "uint256"
        }
      ],
      "name": "mintToTreasury",
      "outputs": [],
      "stateMutability": "nonpayable",
      "type": "function"
    },
    {
      "inputs": [],
      "name": "name",
      "outputs": [
        {
          "internalType": "string",
          "name": "",
          "type": "string"
        }
      ],
      "stateMutability": "view",
      "type": "function"
    },
    {
      "inputs": [
        {
          "internalType": "address",
          "name": "owner",
          "type": "address"
        }
      ],
      "name": "nonces",
      "outputs": [
        {
          "internalType": "uint256",
          "name": "",
          "type": "uint256"
        }
      ],
      "stateMutability": "view",
      "type": "function"
    },
    {
      "inputs": [
        {
          "internalType": "address",
          "name": "owner",
          "type": "address"
        },
        {
          "internalType": "address",
          "name": "spender",
          "type": "address"
        },
        {
          "internalType": "uint256",
          "name": "value",
          "type": "uint256"
        },
        {
          "internalType": "uint256",
          "name": "deadline",
          "type": "uint256"
        },
        {
          "internalType": "uint8",
          "name": "v",
          "type": "uint8"
        },
        {
          "internalType": "bytes32",
          "name": "r",
          "type": "bytes32"
        },
        {
          "internalType": "bytes32",
          "name": "s",
          "type": "bytes32"
        }
      ],
      "name": "permit",
      "outputs": [],
      "stateMutability": "nonpayable",
      "type": "function"
    },
    {
      "inputs": [
        {
          "internalType": "address",
          "name": "token",
          "type": "address"
        },
        {
          "internalType": "address",
          "name": "to",
          "type": "address"
        },
        {
          "internalType": "uint256",
          "name": "amount",
          "type": "uint256"
        }
      ],
      "name": "rescueTokens",
      "outputs": [],
      "stateMutability": "nonpayable",
      "type": "function"
    },
    {
      "inputs": [
        {
          "internalType": "address",
          "name": "user",
          "type": "address"
        }
      ],
      "name": "scaledBalanceOf",
      "outputs": [
        {
          "internalType": "uint256",
          "name": "",
          "type": "uint256"
        }
      ],
      "stateMutability": "view",
      "type": "function"
    },
    {
      "inputs": [],
      "name": "scaledTotalSupply",
      "outputs": [
        {
          "internalType": "uint256",
          "name": "",
          "type": "uint256"
        }
      ],
      "stateMutability": "view",
      "type": "function"
    },
    {
      "inputs": [
        {
          "internalType": "contract IAaveIncentivesController",
          "name": "controller",
          "type": "address"
        }
      ],
      "name": "setIncentivesController",
      "outputs": [],
      "stateMutability": "nonpayable",
      "type": "function"
    },
    {
      "inputs": [],
      "name": "symbol",
      "outputs": [
        {
          "internalType": "string",
          "name": "",
          "type": "string"
        }
      ],
      "stateMutability": "view",
      "type": "function"
    },
    {
      "inputs": [],
      "name": "totalSupply",
      "outputs": [
        {
          "internalType": "uint256",
          "name": "",
          "type": "uint256"
        }
      ],
      "stateMutability": "view",
      "type": "function"
    },
    {
      "inputs": [
        {
          "internalType": "address",
          "name": "recipient",
          "type": "address"
        },
        {
          "internalType": "uint256",
          "name": "amount",
          "type": "uint256"
        }
      ],
      "name": "transfer",
      "outputs": [
        {
          "internalType": "bool",
          "name": "",
          "type": "bool"
        }
      ],
      "stateMutability": "nonpayable",
      "type": "function"
    },
    {
      "inputs": [
        {
          "internalType": "address",
          "name": "sender",
          "type": "address"
        },
        {
          "internalType": "address",
          "name": "recipient",
          "type": "address"
        },
        {
          "internalType": "uint256",
          "name": "amount",
          "type": "uint256"
        }
      ],
      "name": "transferFrom",
      "outputs": [
        {
          "internalType": "bool",
          "name": "",
          "type": "bool"
        }
      ],
      "stateMutability": "nonpayable",
      "type": "function"
    },
    {
      "inputs": [
        {
          "internalType": "address",
          "name": "from",
          "type": "address"
        },
        {
          "internalType": "address",
          "name": "to",
          "type": "address"
        },
        {
          "internalType": "uint256",
          "name": "value",
          "type": "uint256"
        }
      ],
      "name": "transferOnLiquidation",
      "outputs": [],
      "stateMutability": "nonpayable",
      "type": "function"
    },
    {
      "inputs": [
        {
          "internalType": "address",
          "name": "target",
          "type": "address"
        },
        {
          "internalType": "uint256",
          "name": "amount",
          "type": "uint256"
        }
      ],
      "name": "transferUnderlyingTo",
      "outputs": [],
      "stateMutability": "nonpayable",
      "type": "function"
    }
  ],
  "transactionHash": "0x6d14a1608e9bf8071bcb66c1f56efd35e3db36462b25a5dbcb158bcb7d196f24",
  "args": [
    "0x383e49e0C0ffee540e2bd91B00c356FACfa39439"
  ],
  "numDeployments": 1,
  "solcInputHash": "1eaa4365c44e38f8790053afb1c34d22",
  "bytecode": "0x60e0604052600080553480156200001557600080fd5b5060405162003b7c38038062003b7c83398101604081905262000038916200021f565b80806040518060400160405280600b81526020016a105513d2d15397d253541360aa1b8152506040518060400160405280600b81526020016a105513d2d15397d253541360aa1b81525060008383838383838383836001600160a01b0316630542975c6040518163ffffffff1660e01b8152600401602060405180830381865afa158015620000cb573d6000803e3d6000fd5b505050506040513d601f19601f82011682018060405250810190620000f191906200021f565b6001600160a01b031660805282516200011290603790602086019062000160565b5081516200012890603890602085019062000160565b506039805460ff191660ff9290921691909117905550506001600160a01b031660a05250504660c05250620002839650505050505050565b8280546200016e9062000246565b90600052602060002090601f016020900481019282620001925760008555620001dd565b82601f10620001ad57805160ff1916838001178555620001dd565b82800160010185558215620001dd579182015b82811115620001dd578251825591602001919060010190620001c0565b50620001eb929150620001ef565b5090565b5b80821115620001eb5760008155600101620001f0565b6001600160a01b03811681146200021c57600080fd5b50565b6000602082840312156200023257600080fd5b81516200023f8162000206565b9392505050565b600181811c908216806200025b57607f821691505b602082108114156200027d57634e487b7160e01b600052602260045260246000fd5b50919050565b60805160a05160c0516138606200031c6000396000611f540152600081816103ea0152818161074b015281816108b001528181610aaf01528181610f2401528181610ff1015281816110b301528181611196015281816112160152818161133e0152818161199001528181611c60015281816126090152612780015260008181610c43015281816113c50152611a4f01526138606000f3fe608060405234801561001057600080fd5b50600436106102415760003560e01c806375d2641311610145578063b1bf962d116100bd578063d7020d0a1161008c578063e075398611610071578063e0753986146105ba578063e655dbd814610616578063f866c3191461062957600080fd5b8063d7020d0a14610561578063dd62ed3e1461057457600080fd5b8063b1bf962d14610520578063b3f1c93d14610528578063cea9d26f1461053b578063d505accf1461054e57600080fd5b806395d89b4111610114578063a9059cbb116100f9578063a9059cbb146104d1578063ae167335146104e4578063b16a19de1461050257600080fd5b806395d89b41146104b6578063a457c2d7146104be57600080fd5b806375d264131461043157806378160376146104545780637df5bd3b146104905780637ecebe00146104a357600080fd5b80632f114618116101d857806339509351116101a75780636fd976761161018c5780636fd97676146103bf57806370a08231146103d25780637535d246146103e557600080fd5b806339509351146103995780634efecaa5146103ac57600080fd5b80632f1146181461034257806330adf81f14610355578063313ce5671461037c5780633644e5151461039157600080fd5b806318160ddd1161021457806318160ddd146102ff578063183fb413146103075780631da24f3e1461031c57806323b872dd1461032f57600080fd5b806306fdde0314610246578063095ea7b3146102645780630afbcdc9146102875780630bd7ad3b146102e9575b600080fd5b61024e61063c565b60405161025b91906132c7565b60405180910390f35b610277610272366004613316565b6106ce565b604051901515815260200161025b565b6102d4610295366004613342565b73ffffffffffffffffffffffffffffffffffffffff166000908152603460205260409020546036546fffffffffffffffffffffffffffffffff90911691565b6040805192835260208301919091520161025b565b6102f1600181565b60405190815260200161025b565b6102f16106e4565b61031a6103153660046133b9565b6107c3565b005b6102f161032a366004613342565b610b80565b61027761033d3660046134ad565b610bbf565b61031a610350366004613342565b610c3f565b6102f17f6e71edae12b1b97f4d1f60370fef10105fa2faae0126114a169c64845d6126c981565b60395460405160ff909116815260200161025b565b6102f1610e9a565b6102776103a7366004613316565b610ea9565b61031a6103ba366004613316565b610eed565b61031a6103cd3660046134ad565b610fba565b6102f16103e0366004613342565b611064565b61040c7f000000000000000000000000000000000000000000000000000000000000000081565b60405173ffffffffffffffffffffffffffffffffffffffff909116815260200161025b565b603954610100900473ffffffffffffffffffffffffffffffffffffffff1661040c565b61024e6040518060400160405280600181526020017f310000000000000000000000000000000000000000000000000000000000000081525081565b61031a61049e3660046134ee565b61115f565b6102f16104b1366004613342565b611258565b61024e611283565b6102776104cc366004613316565b611292565b6102776104df366004613316565b6112d6565b603c5473ffffffffffffffffffffffffffffffffffffffff1661040c565b603d5473ffffffffffffffffffffffffffffffffffffffff1661040c565b6102f16112f9565b610277610536366004613510565b611304565b61031a6105493660046134ad565b6113c1565b61031a61055c366004613556565b6115ff565b61031a61056f366004613510565b611959565b6102f16105823660046135c4565b73ffffffffffffffffffffffffffffffffffffffff918216600090815260356020908152604080832093909416825291909152205490565b6102f16105c8366004613342565b73ffffffffffffffffffffffffffffffffffffffff1660009081526034602052604090205470010000000000000000000000000000000090046fffffffffffffffffffffffffffffffff1690565b61031a610624366004613342565b611a4b565b61031a6106373660046134ad565b611c29565b60606037805461064b906135fd565b80601f0160208091040260200160405190810160405280929190818152602001828054610677906135fd565b80156106c45780601f10610699576101008083540402835291602001916106c4565b820191906000526020600020905b8154815290600101906020018083116106a757829003601f168201915b5050505050905090565b60006106db338484611cdb565b50600192915050565b6000806106f060365490565b9050806106ff57600091505090565b603d546040517fd15e005300000000000000000000000000000000000000000000000000000000815273ffffffffffffffffffffffffffffffffffffffff91821660048201526107bd917f0000000000000000000000000000000000000000000000000000000000000000169063d15e005390602401602060405180830381865afa158015610792573d6000803e3d6000fd5b505050506040513d601f19601f820116820180604052508101906107b6919061364b565b8290611d49565b91505090565b6001805460ff16806107d45750303b155b806107e0575060005481115b610871576040517f08c379a000000000000000000000000000000000000000000000000000000000815260206004820152602e60248201527f436f6e747261637420696e7374616e63652068617320616c726561647920626560448201527f656e20696e697469616c697a656400000000000000000000000000000000000060648201526084015b60405180910390fd5b60015460ff161580156108ae57600180547fffffffffffffffffffffffffffffffffffffffffffffffffffffffffffffff00168117905560008290555b7f000000000000000000000000000000000000000000000000000000000000000073ffffffffffffffffffffffffffffffffffffffff168d73ffffffffffffffffffffffffffffffffffffffff16146040518060400160405280600281526020017f38370000000000000000000000000000000000000000000000000000000000008152509061096b576040517f08c379a000000000000000000000000000000000000000000000000000000000815260040161086891906132c7565b506109ab88888080601f016020809104026020016040519081016040528093929190818152602001838380828437600092019190915250611da092505050565b6109ea86868080601f016020809104026020016040519081016040528093929190818152602001838380828437600092019190915250611db392505050565b603980547fffffffffffffffffffffffffffffffffffffffffffffffffffffffffffffff001660ff8b16179055603c805473ffffffffffffffffffffffffffffffffffffffff808f167fffffffffffffffffffffffff000000000000000000000000000000000000000092831617909255603d80548e8416921691909117905560398054918c16610100027fffffffffffffffffffffff0000000000000000000000000000000000000000ff909216919091179055610aa7611dc6565b603b819055507f000000000000000000000000000000000000000000000000000000000000000073ffffffffffffffffffffffffffffffffffffffff168b73ffffffffffffffffffffffffffffffffffffffff167fb19e051f8af41150ccccb3fc2c2d8d15f4a4cf434f32a559ba75fe73d6eea20b8e8d8d8d8d8d8d8d8d604051610b3a999897969594939291906136ad565b60405180910390a38015610b7157600180547fffffffffffffffffffffffffffffffffffffffffffffffffffffffffffffff001690555b50505050505050505050505050565b73ffffffffffffffffffffffffffffffffffffffff81166000908152603460205260408120546fffffffffffffffffffffffffffffffff165b92915050565b600080610bcb83611e8b565b73ffffffffffffffffffffffffffffffffffffffff8616600090815260356020908152604080832033808552925290912054919250610c2991879190610c24906fffffffffffffffffffffffffffffffff861690613757565b611cdb565b610c34858583611f31565b506001949350505050565b60007f000000000000000000000000000000000000000000000000000000000000000073ffffffffffffffffffffffffffffffffffffffff1663707cd7166040518163ffffffff1660e01b8152600401602060405180830381865afa158015610cac573d6000803e3d6000fd5b505050506040513d601f19601f82011682018060405250810190610cd0919061376e565b6040517f7be53ca100000000000000000000000000000000000000000000000000000000815233600482015290915073ffffffffffffffffffffffffffffffffffffffff821690637be53ca190602401602060405180830381865afa158015610d3d573d6000803e3d6000fd5b505050506040513d601f19601f82011682018060405250810190610d61919061378b565b6040518060400160405280600181526020017f310000000000000000000000000000000000000000000000000000000000000081525090610dcf576040517f08c379a000000000000000000000000000000000000000000000000000000000815260040161086891906132c7565b50603d546040517f5c19a95c00000000000000000000000000000000000000000000000000000000815273ffffffffffffffffffffffffffffffffffffffff848116600483015290911690635c19a95c90602401600060405180830381600087803b158015610e3d57600080fd5b505af1158015610e51573d6000803e3d6000fd5b505060405173ffffffffffffffffffffffffffffffffffffffff851692507fc7a5523bfd09724fd56950e708e523ad6a61ab165b8e997a31d42357a77f0e0f9150600090a25050565b6000610ea4611f50565b905090565b33600081815260356020908152604080832073ffffffffffffffffffffffffffffffffffffffff8716845290915281205490916106db918590610c249086906137ad565b60408051808201909152600281527f32330000000000000000000000000000000000000000000000000000000000006020820152337f000000000000000000000000000000000000000000000000000000000000000073ffffffffffffffffffffffffffffffffffffffff1614610f91576040517f08c379a000000000000000000000000000000000000000000000000000000000815260040161086891906132c7565b50603d54610fb69073ffffffffffffffffffffffffffffffffffffffff168383611f89565b5050565b60408051808201909152600281527f32330000000000000000000000000000000000000000000000000000000000006020820152337f000000000000000000000000000000000000000000000000000000000000000073ffffffffffffffffffffffffffffffffffffffff161461105e576040517f08c379a000000000000000000000000000000000000000000000000000000000815260040161086891906132c7565b50505050565b603d546040517fd15e005300000000000000000000000000000000000000000000000000000000815273ffffffffffffffffffffffffffffffffffffffff9182166004820152600091610bb9917f00000000000000000000000000000000000000000000000000000000000000009091169063d15e005390602401602060405180830381865afa1580156110fc573d6000803e3d6000fd5b505050506040513d601f19601f82011682018060405250810190611120919061364b565b73ffffffffffffffffffffffffffffffffffffffff84166000908152603460205260409020546fffffffffffffffffffffffffffffffff165b90611d49565b60408051808201909152600281527f32330000000000000000000000000000000000000000000000000000000000006020820152337f000000000000000000000000000000000000000000000000000000000000000073ffffffffffffffffffffffffffffffffffffffff1614611203576040517f08c379a000000000000000000000000000000000000000000000000000000000815260040161086891906132c7565b508161120d575050565b603c54611253907f00000000000000000000000000000000000000000000000000000000000000009073ffffffffffffffffffffffffffffffffffffffff16848461205c565b505050565b73ffffffffffffffffffffffffffffffffffffffff81166000908152603a6020526040812054610bb9565b60606038805461064b906135fd565b33600081815260356020908152604080832073ffffffffffffffffffffffffffffffffffffffff8716845290915281205490916106db918590610c24908690613757565b6000806112e283611e8b565b90506112ef338583611f31565b5060019392505050565b6000610ea460365490565b60408051808201909152600281527f32330000000000000000000000000000000000000000000000000000000000006020820152600090337f000000000000000000000000000000000000000000000000000000000000000073ffffffffffffffffffffffffffffffffffffffff16146113ab576040517f08c379a000000000000000000000000000000000000000000000000000000000815260040161086891906132c7565b506113b88585858561205c565b95945050505050565b60007f000000000000000000000000000000000000000000000000000000000000000073ffffffffffffffffffffffffffffffffffffffff1663707cd7166040518163ffffffff1660e01b8152600401602060405180830381865afa15801561142e573d6000803e3d6000fd5b505050506040513d601f19601f82011682018060405250810190611452919061376e565b6040517f7be53ca100000000000000000000000000000000000000000000000000000000815233600482015290915073ffffffffffffffffffffffffffffffffffffffff821690637be53ca190602401602060405180830381865afa1580156114bf573d6000803e3d6000fd5b505050506040513d601f19601f820116820180604052508101906114e3919061378b565b6040518060400160405280600181526020017f310000000000000000000000000000000000000000000000000000000000000081525090611551576040517f08c379a000000000000000000000000000000000000000000000000000000000815260040161086891906132c7565b50603d5460408051808201909152600281527f383500000000000000000000000000000000000000000000000000000000000060208201529073ffffffffffffffffffffffffffffffffffffffff868116911614156115dd576040517f08c379a000000000000000000000000000000000000000000000000000000000815260040161086891906132c7565b5061105e73ffffffffffffffffffffffffffffffffffffffff85168484611f89565b60408051808201909152600281527f3737000000000000000000000000000000000000000000000000000000000000602082015273ffffffffffffffffffffffffffffffffffffffff8816611681576040517f08c379a000000000000000000000000000000000000000000000000000000000815260040161086891906132c7565b50834211156040518060400160405280600281526020017f3738000000000000000000000000000000000000000000000000000000000000815250906116f4576040517f08c379a000000000000000000000000000000000000000000000000000000000815260040161086891906132c7565b5073ffffffffffffffffffffffffffffffffffffffff87166000908152603a602052604081205490611724610e9a565b604080517f6e71edae12b1b97f4d1f60370fef10105fa2faae0126114a169c64845d6126c9602082015273ffffffffffffffffffffffffffffffffffffffff808d1692820192909252908a1660608201526080810189905260a0810184905260c0810188905260e001604051602081830303815290604052805190602001206040516020016117e59291907f190100000000000000000000000000000000000000000000000000000000000081526002810192909252602282015260420190565b604080517fffffffffffffffffffffffffffffffffffffffffffffffffffffffffffffffe081840301815282825280516020918201206000845290830180835281905260ff8816918301919091526060820186905260808201859052915060019060a0016020604051602081039080840390855afa15801561186b573d6000803e3d6000fd5b5050506020604051035173ffffffffffffffffffffffffffffffffffffffff168973ffffffffffffffffffffffffffffffffffffffff16146040518060400160405280600281526020017f373900000000000000000000000000000000000000000000000000000000000081525090611911576040517f08c379a000000000000000000000000000000000000000000000000000000000815260040161086891906132c7565b5061191d8260016137ad565b73ffffffffffffffffffffffffffffffffffffffff8a166000908152603a602052604090205561194e898989611cdb565b505050505050505050565b60408051808201909152600281527f32330000000000000000000000000000000000000000000000000000000000006020820152337f000000000000000000000000000000000000000000000000000000000000000073ffffffffffffffffffffffffffffffffffffffff16146119fd576040517f08c379a000000000000000000000000000000000000000000000000000000000815260040161086891906132c7565b50611a0a8484848461229d565b73ffffffffffffffffffffffffffffffffffffffff8316301461105e57603d5461105e9073ffffffffffffffffffffffffffffffffffffffff168484611f89565b60007f000000000000000000000000000000000000000000000000000000000000000073ffffffffffffffffffffffffffffffffffffffff1663707cd7166040518163ffffffff1660e01b8152600401602060405180830381865afa158015611ab8573d6000803e3d6000fd5b505050506040513d601f19601f82011682018060405250810190611adc919061376e565b6040517f7be53ca100000000000000000000000000000000000000000000000000000000815233600482015290915073ffffffffffffffffffffffffffffffffffffffff821690637be53ca190602401602060405180830381865afa158015611b49573d6000803e3d6000fd5b505050506040513d601f19601f82011682018060405250810190611b6d919061378b565b6040518060400160405280600181526020017f310000000000000000000000000000000000000000000000000000000000000081525090611bdb576040517f08c379a000000000000000000000000000000000000000000000000000000000815260040161086891906132c7565b50506039805473ffffffffffffffffffffffffffffffffffffffff909216610100027fffffffffffffffffffffff0000000000000000000000000000000000000000ff909216919091179055565b60408051808201909152600281527f32330000000000000000000000000000000000000000000000000000000000006020820152337f000000000000000000000000000000000000000000000000000000000000000073ffffffffffffffffffffffffffffffffffffffff1614611ccd576040517f08c379a000000000000000000000000000000000000000000000000000000000815260040161086891906132c7565b5061125383838360006125bb565b73ffffffffffffffffffffffffffffffffffffffff83811660008181526035602090815260408083209487168084529482529182902085905590518481527f8c5be1e5ebec7d5bd14f71427d1e84f3dd0314c0f7b2291e5b200ac8c7c3b925910160405180910390a3505050565b600081157ffffffffffffffffffffffffffffffffffffffffffe6268e1b017bfe18bffffff83900484111517611d7e57600080fd5b506b033b2e3c9fd0803ce800000091026b019d971e4fe8401e74000000010490565b8051610fb69060379060208401906131cc565b8051610fb69060389060208401906131cc565b60007f8b73c3c69bb8fe3d512ecc4cf759cc79239f7b179b0ffacaa9a75d522b39400f611df1612837565b8051602091820120604080518082018252600181527f310000000000000000000000000000000000000000000000000000000000000090840152805192830193909352918101919091527fc89efdaa54c0f20c7adf612882df0950f5a951637e0307cdcb4c672f298b8bc660608201524660808201523060a082015260c00160405160208183030381529060405280519060200120905090565b60006fffffffffffffffffffffffffffffffff821115611f2d576040517f08c379a000000000000000000000000000000000000000000000000000000000815260206004820152602760248201527f53616665436173743a2076616c756520646f65736e27742066697420696e203160448201527f32382062697473000000000000000000000000000000000000000000000000006064820152608401610868565b5090565b6112538383836fffffffffffffffffffffffffffffffff1660016125bb565b60007f0000000000000000000000000000000000000000000000000000000000000000461415611f815750603b5490565b610ea4611dc6565b6040517fa9059cbb0000000000000000000000000000000000000000000000000000000080825273ffffffffffffffffffffffffffffffffffffffff84166004830152602482018390529060008060448382895af1611fec573d6000803e3d6000fd5b50611ff684612841565b61105e576040517f08c379a000000000000000000000000000000000000000000000000000000000815260206004820152601560248201527f475076323a206661696c6564207472616e7366657200000000000000000000006044820152606401610868565b600080612069848461290d565b60408051808201909152600281527f32340000000000000000000000000000000000000000000000000000000000006020820152909150816120d8576040517f08c379a000000000000000000000000000000000000000000000000000000000815260040161086891906132c7565b5073ffffffffffffffffffffffffffffffffffffffff85166000908152603460205260408120546fffffffffffffffffffffffffffffffff8082169291612135918491700100000000000000000000000000000000900416611d49565b61213f8387611d49565b6121499190613757565b905061215485611e8b565b73ffffffffffffffffffffffffffffffffffffffff8816600090815260346020526040902080546fffffffffffffffffffffffffffffffff9283167001000000000000000000000000000000000292169190911790556121bc876121b785611e8b565b61294c565b60006121c882886137ad565b90508773ffffffffffffffffffffffffffffffffffffffff16600073ffffffffffffffffffffffffffffffffffffffff167fddf252ad1be2c89b69c2b068fc378daa952ba7f163c4a11628f55a4df523b3ef8360405161222a91815260200190565b60405180910390a3604080518281526020810184905290810187905273ffffffffffffffffffffffffffffffffffffffff808a1691908b16907f458f5fa412d0f69b08dd84872b0215675cc67bc1d5b6fd93300a1c3878b861969060600160405180910390a35050159695505050505050565b60006122a9838361290d565b60408051808201909152600281527f3235000000000000000000000000000000000000000000000000000000000000602082015290915081612318576040517f08c379a000000000000000000000000000000000000000000000000000000000815260040161086891906132c7565b5073ffffffffffffffffffffffffffffffffffffffff85166000908152603460205260408120546fffffffffffffffffffffffffffffffff8082169291612375918491700100000000000000000000000000000000900416611d49565b61237f8386611d49565b6123899190613757565b905061239484611e8b565b73ffffffffffffffffffffffffffffffffffffffff8816600090815260346020526040902080546fffffffffffffffffffffffffffffffff9283167001000000000000000000000000000000000292169190911790556123fc876123f785611e8b565b612ac8565b848111156124db5760006124108683613757565b90508773ffffffffffffffffffffffffffffffffffffffff16600073ffffffffffffffffffffffffffffffffffffffff167fddf252ad1be2c89b69c2b068fc378daa952ba7f163c4a11628f55a4df523b3ef8360405161247291815260200190565b60405180910390a3604080518281526020810184905290810186905273ffffffffffffffffffffffffffffffffffffffff89169081907f458f5fa412d0f69b08dd84872b0215675cc67bc1d5b6fd93300a1c3878b861969060600160405180910390a3506125b2565b60006124e78287613757565b9050600073ffffffffffffffffffffffffffffffffffffffff168873ffffffffffffffffffffffffffffffffffffffff167fddf252ad1be2c89b69c2b068fc378daa952ba7f163c4a11628f55a4df523b3ef8360405161254991815260200190565b60405180910390a3604080518281526020810184905290810186905273ffffffffffffffffffffffffffffffffffffffff80891691908a16907f4cf25bc1d991c17529c25213d3cc0cda295eeaad5f13f361969b12ea48015f90906060015b60405180910390a3505b50505050505050565b603d546040517fd15e005300000000000000000000000000000000000000000000000000000000815273ffffffffffffffffffffffffffffffffffffffff91821660048201819052916000917f00000000000000000000000000000000000000000000000000000000000000009091169063d15e005390602401602060405180830381865afa158015612652573d6000803e3d6000fd5b505050506040513d601f19601f82011682018060405250810190612676919061364b565b905060006126bc826111598973ffffffffffffffffffffffffffffffffffffffff166000908152603460205260409020546fffffffffffffffffffffffffffffffff1690565b90506000612702836111598973ffffffffffffffffffffffffffffffffffffffff166000908152603460205260409020546fffffffffffffffffffffffffffffffff1690565b905061271088888886612b2c565b84156127dd576040517fd5ed393300000000000000000000000000000000000000000000000000000000815273ffffffffffffffffffffffffffffffffffffffff858116600483015289811660248301528881166044830152606482018890526084820184905260a482018390527f0000000000000000000000000000000000000000000000000000000000000000169063d5ed39339060c401600060405180830381600087803b1580156127c457600080fd5b505af11580156127d8573d6000803e3d6000fd5b505050505b73ffffffffffffffffffffffffffffffffffffffff8088169089167f4beccb90f994c31aced7a23b5611020728a23d8ec5cddd1a3e9d97b96fda8666612823898761290d565b6040805191825260208201889052016125a8565b6060610ea461063c565b6000612881565b7f08c379a00000000000000000000000000000000000000000000000000000000060005260206004528060245250806044525060646000fd5b3d80156128c057602081146128fa576128bb7f475076323a206d616c666f726d6564207472616e7366657220726573756c7400601f612848565b612907565b823b6128f1576128f17f475076323a206e6f74206120636f6e74726163740000000000000000000000006014612848565b60019150612907565b3d6000803e600051151591505b50919050565b600081156b033b2e3c9fd0803ce80000006002840419048411171561293157600080fd5b506b033b2e3c9fd0803ce80000009190910260028204010490565b60365461296b6fffffffffffffffffffffffffffffffff8316826137ad565b60365573ffffffffffffffffffffffffffffffffffffffff83166000908152603460205260409020546fffffffffffffffffffffffffffffffff166129b083826137c5565b73ffffffffffffffffffffffffffffffffffffffff858116600090815260346020526040902080547fffffffffffffffffffffffffffffffff00000000000000000000000000000000166fffffffffffffffffffffffffffffffff93909316929092179091556039546101009004168015612ac1576040517f31873e2e00000000000000000000000000000000000000000000000000000000815273ffffffffffffffffffffffffffffffffffffffff8681166004830152602482018590526fffffffffffffffffffffffffffffffff841660448301528216906331873e2e90606401600060405180830381600087803b158015612aad57600080fd5b505af115801561194e573d6000803e3d6000fd5b5050505050565b603654612ae76fffffffffffffffffffffffffffffffff831682613757565b60365573ffffffffffffffffffffffffffffffffffffffff83166000908152603460205260409020546fffffffffffffffffffffffffffffffff166129b083826137f9565b73ffffffffffffffffffffffffffffffffffffffff84166000908152603460205260408120546fffffffffffffffffffffffffffffffff8082169291612b88918491700100000000000000000000000000000000900416611d49565b612b928385611d49565b612b9c9190613757565b90506000612bde8673ffffffffffffffffffffffffffffffffffffffff166000908152603460205260409020546fffffffffffffffffffffffffffffffff1690565b73ffffffffffffffffffffffffffffffffffffffff871660009081526034602052604081205491925090612c3990839070010000000000000000000000000000000090046fffffffffffffffffffffffffffffffff16611d49565b612c438387611d49565b612c4d9190613757565b9050612c5885611e8b565b73ffffffffffffffffffffffffffffffffffffffff8916600090815260346020526040902080546fffffffffffffffffffffffffffffffff928316700100000000000000000000000000000000029216919091179055612cb785611e8b565b73ffffffffffffffffffffffffffffffffffffffff8816600090815260346020526040902080546fffffffffffffffffffffffffffffffff928316700100000000000000000000000000000000029216919091179055612d298888612d24612d1f8a8a61290d565b611e8b565b612f21565b8215612dd85760405183815273ffffffffffffffffffffffffffffffffffffffff8916906000907fddf252ad1be2c89b69c2b068fc378daa952ba7f163c4a11628f55a4df523b3ef9060200160405180910390a36040805184815260208101859052808201879052905173ffffffffffffffffffffffffffffffffffffffff8a169133917f458f5fa412d0f69b08dd84872b0215675cc67bc1d5b6fd93300a1c3878b861969181900360600190a35b8673ffffffffffffffffffffffffffffffffffffffff168873ffffffffffffffffffffffffffffffffffffffff1614158015612e145750600081115b15612ec25760405181815273ffffffffffffffffffffffffffffffffffffffff8816906000907fddf252ad1be2c89b69c2b068fc378daa952ba7f163c4a11628f55a4df523b3ef9060200160405180910390a36040805182815260208101839052808201879052905173ffffffffffffffffffffffffffffffffffffffff89169133917f458f5fa412d0f69b08dd84872b0215675cc67bc1d5b6fd93300a1c3878b861969181900360600190a35b8673ffffffffffffffffffffffffffffffffffffffff168873ffffffffffffffffffffffffffffffffffffffff167fddf252ad1be2c89b69c2b068fc378daa952ba7f163c4a11628f55a4df523b3ef886040516125a891815260200190565b73ffffffffffffffffffffffffffffffffffffffff83166000908152603460205260409020546fffffffffffffffffffffffffffffffff16612f6382826137f9565b73ffffffffffffffffffffffffffffffffffffffff85811660009081526034602052604080822080547fffffffffffffffffffffffffffffffff00000000000000000000000000000000166fffffffffffffffffffffffffffffffff9586161790559186168152205416612fd783826137c5565b73ffffffffffffffffffffffffffffffffffffffff858116600090815260346020526040902080547fffffffffffffffffffffffffffffffff00000000000000000000000000000000166fffffffffffffffffffffffffffffffff939093169290921790915560395461010090041680156131c4576036546040517f31873e2e00000000000000000000000000000000000000000000000000000000815273ffffffffffffffffffffffffffffffffffffffff8881166004830152602482018390526fffffffffffffffffffffffffffffffff861660448301528316906331873e2e90606401600060405180830381600087803b1580156130d757600080fd5b505af11580156130eb573d6000803e3d6000fd5b505050508573ffffffffffffffffffffffffffffffffffffffff168773ffffffffffffffffffffffffffffffffffffffff16146125b2576040517f31873e2e00000000000000000000000000000000000000000000000000000000815273ffffffffffffffffffffffffffffffffffffffff8781166004830152602482018390526fffffffffffffffffffffffffffffffff851660448301528316906331873e2e90606401600060405180830381600087803b1580156131aa57600080fd5b505af11580156131be573d6000803e3d6000fd5b50505050505b505050505050565b8280546131d8906135fd565b90600052602060002090601f0160209004810192826131fa5760008555613240565b82601f1061321357805160ff1916838001178555613240565b82800160010185558215613240579182015b82811115613240578251825591602001919060010190613225565b50611f2d9291505b80821115611f2d5760008155600101613248565b6000815180845260005b8181101561328257602081850181015186830182015201613266565b81811115613294576000602083870101525b50601f017fffffffffffffffffffffffffffffffffffffffffffffffffffffffffffffffe0169290920160200192915050565b6020815260006132da602083018461325c565b9392505050565b73ffffffffffffffffffffffffffffffffffffffff8116811461330357600080fd5b50565b8035613311816132e1565b919050565b6000806040838503121561332957600080fd5b8235613334816132e1565b946020939093013593505050565b60006020828403121561335457600080fd5b81356132da816132e1565b803560ff8116811461331157600080fd5b60008083601f84011261338257600080fd5b50813567ffffffffffffffff81111561339a57600080fd5b6020830191508360208285010111156133b257600080fd5b9250929050565b60008060008060008060008060008060006101008c8e0312156133db57600080fd5b6133e48c613306565b9a506133f260208d01613306565b995061340060408d01613306565b985061340e60608d01613306565b975061341c60808d0161335f565b965067ffffffffffffffff8060a08e0135111561343857600080fd5b6134488e60a08f01358f01613370565b909750955060c08d013581101561345e57600080fd5b61346e8e60c08f01358f01613370565b909550935060e08d013581101561348457600080fd5b506134958d60e08e01358e01613370565b81935080925050509295989b509295989b9093969950565b6000806000606084860312156134c257600080fd5b83356134cd816132e1565b925060208401356134dd816132e1565b929592945050506040919091013590565b6000806040838503121561350157600080fd5b50508035926020909101359150565b6000806000806080858703121561352657600080fd5b8435613531816132e1565b93506020850135613541816132e1565b93969395505050506040820135916060013590565b600080600080600080600060e0888a03121561357157600080fd5b873561357c816132e1565b9650602088013561358c816132e1565b955060408801359450606088013593506135a86080890161335f565b925060a0880135915060c0880135905092959891949750929550565b600080604083850312156135d757600080fd5b82356135e2816132e1565b915060208301356135f2816132e1565b809150509250929050565b600181811c9082168061361157607f821691505b60208210811415612907577f4e487b7100000000000000000000000000000000000000000000000000000000600052602260045260246000fd5b60006020828403121561365d57600080fd5b5051919050565b8183528181602085013750600060208284010152600060207fffffffffffffffffffffffffffffffffffffffffffffffffffffffffffffffe0601f840116840101905092915050565b600073ffffffffffffffffffffffffffffffffffffffff808c168352808b1660208401525060ff8916604083015260c060608301526136f060c08301888a613664565b8281036080840152613703818789613664565b905082810360a0840152613718818587613664565b9c9b505050505050505050505050565b7f4e487b7100000000000000000000000000000000000000000000000000000000600052601160045260246000fd5b60008282101561376957613769613728565b500390565b60006020828403121561378057600080fd5b81516132da816132e1565b60006020828403121561379d57600080fd5b815180151581146132da57600080fd5b600082198211156137c0576137c0613728565b500190565b60006fffffffffffffffffffffffffffffffff8083168185168083038211156137f0576137f0613728565b01949350505050565b60006fffffffffffffffffffffffffffffffff8381169083168181101561382257613822613728565b03939250505056fea26469706673582212203ace220a1b49825226bc08f3220f83f14ea785de5d7a266d2852d1ce2f2b8ea564736f6c634300080a0033",
  "devdoc": {
    "author": "Aave",
    "details": "The underlying asset needs to be compatible with the COMP delegation interface",
    "events": {
      "DelegateUnderlyingTo(address)": {
        "details": "Emitted when underlying voting power is delegated",
        "params": {
          "delegatee": "The address of the delegatee"
        }
      }
    },
    "kind": "dev",
    "methods": {
      "DOMAIN_SEPARATOR()": {
        "details": "Overrides the base function to fully implement IATokensee `EIP712Base.DOMAIN_SEPARATOR()` for more detailed documentation"
      },
      "RESERVE_TREASURY_ADDRESS()": {
        "returns": {
          "_0": "Address of the Aave treasury"
        }
      },
      "UNDERLYING_ASSET_ADDRESS()": {
        "returns": {
          "_0": "The address of the underlying asset"
        }
      },
      "allowance(address,address)": {
        "details": "Returns the remaining number of tokens that `spender` will be allowed to spend on behalf of `owner` through {transferFrom}. This is zero by default. This value changes when {approve} or {transferFrom} are called."
      },
      "approve(address,uint256)": {
        "details": "Sets `amount` as the allowance of `spender` over the caller's tokens. Returns a boolean value indicating whether the operation succeeded. IMPORTANT: Beware that changing an allowance with this method brings the risk that someone may use both the old and the new allowance by unfortunate transaction ordering. One possible solution to mitigate this race condition is to first reduce the spender's allowance to 0 and set the desired value afterwards: https://github.com/ethereum/EIPs/issues/20#issuecomment-263524729 Emits an {Approval} event."
      },
      "balanceOf(address)": {
        "details": "Returns the amount of tokens owned by `account`."
      },
      "burn(address,address,uint256,uint256)": {
        "details": "In some instances, the mint event could be emitted from a burn transaction if the amount to burn is less than the interest that the user accrued",
        "params": {
          "amount": "The amount being burned",
          "from": "The address from which the aTokens will be burned",
          "index": "The next liquidity index of the reserve",
          "receiverOfUnderlying": "The address that will receive the underlying"
        }
      },
      "constructor": {
        "details": "Constructor.",
        "params": {
          "pool": "The address of the Pool contract"
        }
      },
      "decreaseAllowance(address,uint256)": {
        "params": {
          "spender": "The user allowed to spend on behalf of _msgSender()",
          "subtractedValue": "The amount being subtracted to the allowance"
        },
        "returns": {
          "_0": "`true`"
        }
      },
      "delegateUnderlyingTo(address)": {
        "params": {
          "delegatee": "The address that will receive the delegation"
        }
      },
      "getIncentivesController()": {
        "returns": {
          "_0": "The address of the Incentives Controller"
        }
      },
      "getPreviousIndex(address)": {
        "params": {
          "user": "The address of the user"
        },
        "returns": {
          "_0": "The last index interest was accrued to the user's balance, expressed in ray"
        }
      },
      "getScaledUserBalanceAndSupply(address)": {
        "params": {
          "user": "The address of the user"
        },
        "returns": {
          "_0": "The scaled balance of the user",
          "_1": "The scaled total supply"
        }
      },
      "handleRepayment(address,address,uint256)": {
        "details": "The default implementation is empty as with standard ERC20 tokens, nothing needs to be done after the transfer is concluded. However in the future there may be aTokens that allow for example to stake the underlying to receive LM rewards. In that case, `handleRepayment()` would perform the staking of the underlying asset.",
        "params": {
          "amount": "The amount getting repaid",
          "onBehalfOf": "The address of the user who will get his debt reduced/removed",
          "user": "The user executing the repayment"
        }
      },
      "increaseAllowance(address,uint256)": {
        "params": {
          "addedValue": "The amount being added to the allowance",
          "spender": "The user allowed to spend on behalf of _msgSender()"
        },
        "returns": {
          "_0": "`true`"
        }
      },
      "initialize(address,address,address,address,uint8,string,string,bytes)": {
        "params": {
          "aTokenDecimals": "The decimals of the aToken, same as the underlying asset's",
          "aTokenName": "The name of the aToken",
          "aTokenSymbol": "The symbol of the aToken",
          "incentivesController": "The smart contract managing potential incentives distribution",
          "params": "A set of encoded parameters for additional initialization",
          "pool": "The pool contract that is initializing this contract",
          "treasury": "The address of the Aave treasury, receiving the fees on this aToken",
          "underlyingAsset": "The address of the underlying asset of this aToken (E.g. WETH for aWETH)"
        }
      },
      "mint(address,address,uint256,uint256)": {
        "params": {
          "amount": "The amount of tokens getting minted",
          "caller": "The address performing the mint",
          "index": "The next liquidity index of the reserve",
          "onBehalfOf": "The address of the user that will receive the minted aTokens"
        },
        "returns": {
          "_0": "`true` if the the previous balance of the user was 0"
        }
      },
      "mintToTreasury(uint256,uint256)": {
        "params": {
          "amount": "The amount of tokens getting minted",
          "index": "The next liquidity index of the reserve"
        }
      },
      "nonces(address)": {
        "details": "Overrides the base function to fully implement IATokensee `EIP712Base.nonces()` for more detailed documentation"
      },
      "permit(address,address,uint256,uint256,uint8,bytes32,bytes32)": {
        "details": "implements the permit function as for https://github.com/ethereum/EIPs/blob/8a34d644aacf0f9f8f00815307fd7dd5da07655f/EIPS/eip-2612.md",
        "params": {
          "deadline": "The deadline timestamp, type(uint256).max for max deadline",
          "owner": "The owner of the funds",
          "r": "Signature param",
          "s": "Signature param",
          "spender": "The spender",
          "v": "Signature param",
          "value": "The amount"
        }
      },
      "rescueTokens(address,address,uint256)": {
        "params": {
          "amount": "The amount of token to transfer",
          "to": "The address of the recipient",
          "token": "The address of the token"
        }
      },
      "scaledBalanceOf(address)": {
        "details": "The scaled balance is the sum of all the updated stored balance divided by the reserve's liquidity index at the moment of the update",
        "params": {
          "user": "The user whose balance is calculated"
        },
        "returns": {
          "_0": "The scaled balance of the user"
        }
      },
      "scaledTotalSupply()": {
        "returns": {
          "_0": "The scaled total supply"
        }
      },
      "setIncentivesController(address)": {
        "params": {
          "controller": "the new Incentives controller"
        }
      },
      "totalSupply()": {
        "details": "Returns the amount of tokens in existence."
      },
      "transfer(address,uint256)": {
        "details": "Moves `amount` tokens from the caller's account to `recipient`. Returns a boolean value indicating whether the operation succeeded. Emits a {Transfer} event."
      },
      "transferFrom(address,address,uint256)": {
        "details": "Moves `amount` tokens from `sender` to `recipient` using the allowance mechanism. `amount` is then deducted from the caller's allowance. Returns a boolean value indicating whether the operation succeeded. Emits a {Transfer} event."
      },
      "transferOnLiquidation(address,address,uint256)": {
        "params": {
          "from": "The address getting liquidated, current owner of the aTokens",
          "to": "The recipient",
          "value": "The amount of tokens getting transferred"
        }
      },
      "transferUnderlyingTo(address,uint256)": {
        "details": "Used by the Pool to transfer assets in borrow(), withdraw() and flashLoan()",
        "params": {
          "amount": "The amount getting transferred",
          "target": "The recipient of the underlying"
        }
      }
    },
    "title": "DelegationAwareAToken",
    "version": 1
  },
  "userdoc": {
    "kind": "user",
    "methods": {
      "RESERVE_TREASURY_ADDRESS()": {
        "notice": "Returns the address of the Aave treasury, receiving the fees on this aToken."
      },
      "UNDERLYING_ASSET_ADDRESS()": {
        "notice": "Returns the address of the underlying asset of this aToken (E.g. WETH for aWETH)"
      },
      "burn(address,address,uint256,uint256)": {
        "notice": "Burns aTokens from `user` and sends the equivalent amount of underlying to `receiverOfUnderlying`"
      },
      "decreaseAllowance(address,uint256)": {
        "notice": "Decreases the allowance of spender to spend _msgSender() tokens"
      },
      "delegateUnderlyingTo(address)": {
        "notice": "Delegates voting power of the underlying asset to a `delegatee` address"
      },
      "getIncentivesController()": {
        "notice": "Returns the address of the Incentives Controller contract"
      },
      "getPreviousIndex(address)": {
        "notice": "Returns last index interest was accrued to the user's balance"
      },
      "getScaledUserBalanceAndSupply(address)": {
        "notice": "Returns the scaled balance of the user and the scaled total supply."
      },
      "handleRepayment(address,address,uint256)": {
        "notice": "Handles the underlying received by the aToken after the transfer has been completed."
      },
      "increaseAllowance(address,uint256)": {
        "notice": "Increases the allowance of spender to spend _msgSender() tokens"
      },
      "initialize(address,address,address,address,uint8,string,string,bytes)": {
        "notice": "Initializes the aToken"
      },
      "mint(address,address,uint256,uint256)": {
        "notice": "Mints `amount` aTokens to `user`"
      },
      "mintToTreasury(uint256,uint256)": {
        "notice": "Mints aTokens to the reserve treasury"
      },
      "permit(address,address,uint256,uint256,uint8,bytes32,bytes32)": {
        "notice": "Allow passing a signed message to approve spending"
      },
      "rescueTokens(address,address,uint256)": {
        "notice": "Rescue and transfer tokens locked in this contract"
      },
      "scaledBalanceOf(address)": {
        "notice": "Returns the scaled balance of the user."
      },
      "scaledTotalSupply()": {
        "notice": "Returns the scaled total supply of the scaled balance token. Represents sum(debt/index)"
      },
      "setIncentivesController(address)": {
        "notice": "Sets a new Incentives Controller"
      },
      "transferOnLiquidation(address,address,uint256)": {
        "notice": "Transfers aTokens in the event of a borrow being liquidated, in case the liquidators reclaims the aToken"
      },
      "transferUnderlyingTo(address,uint256)": {
        "notice": "Transfers the underlying asset to `target`."
      }
    },
    "notice": "AToken enabled to delegate voting power of the underlying asset to a different address",
    "version": 1
  },
  "storageLayout": {
    "storage": [
      {
        "astId": 12752,
        "contract": "contracts/core-v3/protocol/tokenization/DelegationAwareAToken.sol:DelegationAwareAToken",
        "label": "lastInitializedRevision",
        "offset": 0,
        "slot": "0",
        "type": "t_uint256"
      },
      {
        "astId": 12755,
        "contract": "contracts/core-v3/protocol/tokenization/DelegationAwareAToken.sol:DelegationAwareAToken",
        "label": "initializing",
        "offset": 0,
        "slot": "1",
        "type": "t_bool"
      },
      {
        "astId": 12825,
        "contract": "contracts/core-v3/protocol/tokenization/DelegationAwareAToken.sol:DelegationAwareAToken",
        "label": "______gap",
        "offset": 0,
        "slot": "2",
        "type": "t_array(t_uint256)50_storage"
      },
      {
        "astId": 30933,
        "contract": "contracts/core-v3/protocol/tokenization/DelegationAwareAToken.sol:DelegationAwareAToken",
        "label": "_userState",
        "offset": 0,
        "slot": "52",
        "type": "t_mapping(t_address,t_struct(UserState)30928_storage)"
      },
      {
        "astId": 30939,
        "contract": "contracts/core-v3/protocol/tokenization/DelegationAwareAToken.sol:DelegationAwareAToken",
        "label": "_allowances",
        "offset": 0,
        "slot": "53",
        "type": "t_mapping(t_address,t_mapping(t_address,t_uint256))"
      },
      {
        "astId": 30941,
        "contract": "contracts/core-v3/protocol/tokenization/DelegationAwareAToken.sol:DelegationAwareAToken",
        "label": "_totalSupply",
        "offset": 0,
        "slot": "54",
        "type": "t_uint256"
      },
      {
        "astId": 30943,
        "contract": "contracts/core-v3/protocol/tokenization/DelegationAwareAToken.sol:DelegationAwareAToken",
        "label": "_name",
        "offset": 0,
        "slot": "55",
        "type": "t_string_storage"
      },
      {
        "astId": 30945,
        "contract": "contracts/core-v3/protocol/tokenization/DelegationAwareAToken.sol:DelegationAwareAToken",
        "label": "_symbol",
        "offset": 0,
        "slot": "56",
        "type": "t_string_storage"
      },
      {
        "astId": 30947,
        "contract": "contracts/core-v3/protocol/tokenization/DelegationAwareAToken.sol:DelegationAwareAToken",
        "label": "_decimals",
        "offset": 0,
        "slot": "57",
        "type": "t_uint8"
      },
      {
        "astId": 30950,
        "contract": "contracts/core-v3/protocol/tokenization/DelegationAwareAToken.sol:DelegationAwareAToken",
        "label": "_incentivesController",
        "offset": 1,
        "slot": "57",
        "type": "t_contract(IAaveIncentivesController)4161"
      },
      {
        "astId": 30767,
        "contract": "contracts/core-v3/protocol/tokenization/DelegationAwareAToken.sol:DelegationAwareAToken",
        "label": "_nonces",
        "offset": 0,
        "slot": "58",
        "type": "t_mapping(t_address,t_uint256)"
      },
      {
        "astId": 30769,
        "contract": "contracts/core-v3/protocol/tokenization/DelegationAwareAToken.sol:DelegationAwareAToken",
        "label": "_domainSeparator",
        "offset": 0,
        "slot": "59",
        "type": "t_bytes32"
      },
      {
        "astId": 28419,
        "contract": "contracts/core-v3/protocol/tokenization/DelegationAwareAToken.sol:DelegationAwareAToken",
        "label": "_treasury",
        "offset": 0,
        "slot": "60",
        "type": "t_address"
      },
      {
        "astId": 28421,
        "contract": "contracts/core-v3/protocol/tokenization/DelegationAwareAToken.sol:DelegationAwareAToken",
        "label": "_underlyingAsset",
        "offset": 0,
        "slot": "61",
        "type": "t_address"
      }
    ],
    "types": {
      "t_address": {
        "encoding": "inplace",
        "label": "address",
        "numberOfBytes": "20"
      },
      "t_array(t_uint256)50_storage": {
        "base": "t_uint256",
        "encoding": "inplace",
        "label": "uint256[50]",
        "numberOfBytes": "1600"
      },
      "t_bool": {
        "encoding": "inplace",
        "label": "bool",
        "numberOfBytes": "1"
      },
      "t_bytes32": {
        "encoding": "inplace",
        "label": "bytes32",
        "numberOfBytes": "32"
      },
      "t_contract(IAaveIncentivesController)4161": {
        "encoding": "inplace",
        "label": "contract IAaveIncentivesController",
        "numberOfBytes": "20"
      },
      "t_mapping(t_address,t_mapping(t_address,t_uint256))": {
        "encoding": "mapping",
        "key": "t_address",
        "label": "mapping(address => mapping(address => uint256))",
        "numberOfBytes": "32",
        "value": "t_mapping(t_address,t_uint256)"
      },
      "t_mapping(t_address,t_struct(UserState)30928_storage)": {
        "encoding": "mapping",
        "key": "t_address",
        "label": "mapping(address => struct IncentivizedERC20.UserState)",
        "numberOfBytes": "32",
        "value": "t_struct(UserState)30928_storage"
      },
      "t_mapping(t_address,t_uint256)": {
        "encoding": "mapping",
        "key": "t_address",
        "label": "mapping(address => uint256)",
        "numberOfBytes": "32",
        "value": "t_uint256"
      },
      "t_string_storage": {
        "encoding": "bytes",
        "label": "string",
        "numberOfBytes": "32"
      },
      "t_struct(UserState)30928_storage": {
        "encoding": "inplace",
        "label": "struct IncentivizedERC20.UserState",
        "members": [
          {
            "astId": 30925,
            "contract": "contracts/core-v3/protocol/tokenization/DelegationAwareAToken.sol:DelegationAwareAToken",
            "label": "balance",
            "offset": 0,
            "slot": "0",
            "type": "t_uint128"
          },
          {
            "astId": 30927,
            "contract": "contracts/core-v3/protocol/tokenization/DelegationAwareAToken.sol:DelegationAwareAToken",
            "label": "additionalData",
            "offset": 16,
            "slot": "0",
            "type": "t_uint128"
          }
        ],
        "numberOfBytes": "32"
      },
      "t_uint128": {
        "encoding": "inplace",
        "label": "uint128",
        "numberOfBytes": "16"
      },
      "t_uint256": {
        "encoding": "inplace",
        "label": "uint256",
        "numberOfBytes": "32"
      },
      "t_uint8": {
        "encoding": "inplace",
        "label": "uint8",
        "numberOfBytes": "1"
      }
    }
  }
}