{
  "address": "0x7CDD9619dfFf65C0678C0856Ff33B99bE9ECd331",
  "abi": [
    {
      "inputs": [
        {
          "internalType": "uint256",
          "name": "initialSupply",
          "type": "uint256"
        },
        {
          "internalType": "address",
          "name": "_treasury",
          "type": "address"
        }
      ],
      "stateMutability": "nonpayable",
      "type": "constructor"
    },
    {
      "anonymous": false,
      "inputs": [
        {
          "indexed": true,
          "internalType": "address",
          "name": "owner",
          "type": "address"
        },
        {
          "indexed": true,
          "internalType": "address",
          "name": "spender",
          "type": "address"
        },
        {
          "indexed": false,
          "internalType": "uint256",
          "name": "value",
          "type": "uint256"
        }
      ],
      "name": "Approval",
      "type": "event"
    },
    {
      "anonymous": false,
      "inputs": [
        {
          "indexed": true,
          "internalType": "address",
          "name": "previousOwner",
          "type": "address"
        },
        {
          "indexed": true,
          "internalType": "address",
          "name": "newOwner",
          "type": "address"
        }
      ],
      "name": "OwnershipTransferred",
      "type": "event"
    },
    {
      "anonymous": false,
      "inputs": [
        {
          "indexed": true,
          "internalType": "address",
          "name": "from",
          "type": "address"
        },
        {
          "indexed": true,
          "internalType": "address",
          "name": "to",
          "type": "address"
        },
        {
          "indexed": false,
          "internalType": "uint256",
          "name": "value",
          "type": "uint256"
        }
      ],
      "name": "Transfer",
      "type": "event"
    },
    {
      "inputs": [],
      "name": "MULTIPLIER",
      "outputs": [
        {
          "internalType": "uint256",
          "name": "",
          "type": "uint256"
        }
      ],
      "stateMutability": "view",
      "type": "function"
    },
    {
      "inputs": [
        {
          "internalType": "address",
          "name": "owner",
          "type": "address"
        },
        {
          "internalType": "address",
          "name": "spender",
          "type": "address"
        }
      ],
      "name": "allowance",
      "outputs": [
        {
          "internalType": "uint256",
          "name": "",
          "type": "uint256"
        }
      ],
      "stateMutability": "view",
      "type": "function"
    },
    {
      "inputs": [
        {
          "internalType": "address",
          "name": "spender",
          "type": "address"
        },
        {
          "internalType": "uint256",
          "name": "amount",
          "type": "uint256"
        }
      ],
      "name": "approve",
      "outputs": [
        {
          "internalType": "bool",
          "name": "",
          "type": "bool"
        }
      ],
      "stateMutability": "nonpayable",
      "type": "function"
    },
    {
      "inputs": [
        {
          "internalType": "address",
          "name": "account",
          "type": "address"
        }
      ],
      "name": "balanceOf",
      "outputs": [
        {
          "internalType": "uint256",
          "name": "",
          "type": "uint256"
        }
      ],
      "stateMutability": "view",
      "type": "function"
    },
    {
      "inputs": [],
      "name": "buyTax",
      "outputs": [
        {
          "internalType": "uint256",
          "name": "",
          "type": "uint256"
        }
      ],
      "stateMutability": "view",
      "type": "function"
    },
    {
      "inputs": [],
      "name": "decimals",
      "outputs": [
        {
          "internalType": "uint8",
          "name": "",
          "type": "uint8"
        }
      ],
      "stateMutability": "view",
      "type": "function"
    },
    {
      "inputs": [
        {
          "internalType": "address",
          "name": "spender",
          "type": "address"
        },
        {
          "internalType": "uint256",
          "name": "subtractedValue",
          "type": "uint256"
        }
      ],
      "name": "decreaseAllowance",
      "outputs": [
        {
          "internalType": "bool",
          "name": "",
          "type": "bool"
        }
      ],
      "stateMutability": "nonpayable",
      "type": "function"
    },
    {
      "inputs": [
        {
          "internalType": "address",
          "name": "spender",
          "type": "address"
        },
        {
          "internalType": "uint256",
          "name": "addedValue",
          "type": "uint256"
        }
      ],
      "name": "increaseAllowance",
      "outputs": [
        {
          "internalType": "bool",
          "name": "",
          "type": "bool"
        }
      ],
      "stateMutability": "nonpayable",
      "type": "function"
    },
    {
      "inputs": [
        {
          "internalType": "address",
          "name": "",
          "type": "address"
        }
      ],
      "name": "isMarketPair",
      "outputs": [
        {
          "internalType": "bool",
          "name": "",
          "type": "bool"
        }
      ],
      "stateMutability": "view",
      "type": "function"
    },
    {
      "inputs": [
        {
          "internalType": "address",
          "name": "",
          "type": "address"
        }
      ],
      "name": "isTaxExempt",
      "outputs": [
        {
          "internalType": "bool",
          "name": "",
          "type": "bool"
        }
      ],
      "stateMutability": "view",
      "type": "function"
    },
    {
      "inputs": [],
      "name": "name",
      "outputs": [
        {
          "internalType": "string",
          "name": "",
          "type": "string"
        }
      ],
      "stateMutability": "view",
      "type": "function"
    },
    {
      "inputs": [],
      "name": "owner",
      "outputs": [
        {
          "internalType": "address",
          "name": "",
          "type": "address"
        }
      ],
      "stateMutability": "view",
      "type": "function"
    },
    {
      "inputs": [],
      "name": "renounceOwnership",
      "outputs": [],
      "stateMutability": "nonpayable",
      "type": "function"
    },
    {
      "inputs": [],
      "name": "sellTax",
      "outputs": [
        {
          "internalType": "uint256",
          "name": "",
          "type": "uint256"
        }
      ],
      "stateMutability": "view",
      "type": "function"
    },
    {
      "inputs": [
        {
          "internalType": "uint256",
          "name": "_buyTax",
          "type": "uint256"
        }
      ],
      "name": "setBuyTax",
      "outputs": [],
      "stateMutability": "nonpayable",
      "type": "function"
    },
    {
      "inputs": [
        {
          "internalType": "address",
          "name": "pair",
          "type": "address"
        },
        {
          "internalType": "bool",
          "name": "value",
          "type": "bool"
        }
      ],
      "name": "setMarketPair",
      "outputs": [],
      "stateMutability": "nonpayable",
      "type": "function"
    },
    {
      "inputs": [
        {
          "internalType": "uint256",
          "name": "_sellTax",
          "type": "uint256"
        }
      ],
      "name": "setSellTax",
      "outputs": [],
      "stateMutability": "nonpayable",
      "type": "function"
    },
    {
      "inputs": [
        {
          "internalType": "address",
          "name": "account",
          "type": "address"
        },
        {
          "internalType": "bool",
          "name": "exempt",
          "type": "bool"
        }
      ],
      "name": "setTaxExempt",
      "outputs": [],
      "stateMutability": "nonpayable",
      "type": "function"
    },
    {
      "inputs": [
        {
          "internalType": "address",
          "name": "_treasury",
          "type": "address"
        }
      ],
      "name": "setTreasury",
      "outputs": [],
      "stateMutability": "nonpayable",
      "type": "function"
    },
    {
      "inputs": [],
      "name": "symbol",
      "outputs": [
        {
          "internalType": "string",
          "name": "",
          "type": "string"
        }
      ],
      "stateMutability": "view",
      "type": "function"
    },
    {
      "inputs": [],
      "name": "totalSupply",
      "outputs": [
        {
          "internalType": "uint256",
          "name": "",
          "type": "uint256"
        }
      ],
      "stateMutability": "view",
      "type": "function"
    },
    {
      "inputs": [
        {
          "internalType": "address",
          "name": "recipient",
          "type": "address"
        },
        {
          "internalType": "uint256",
          "name": "amount",
          "type": "uint256"
        }
      ],
      "name": "transfer",
      "outputs": [
        {
          "internalType": "bool",
          "name": "",
          "type": "bool"
        }
      ],
      "stateMutability": "nonpayable",
      "type": "function"
    },
    {
      "inputs": [
        {
          "internalType": "address",
          "name": "sender",
          "type": "address"
        },
        {
          "internalType": "address",
          "name": "recipient",
          "type": "address"
        },
        {
          "internalType": "uint256",
          "name": "amount",
          "type": "uint256"
        }
      ],
      "name": "transferFrom",
      "outputs": [
        {
          "internalType": "bool",
          "name": "",
          "type": "bool"
        }
      ],
      "stateMutability": "nonpayable",
      "type": "function"
    },
    {
      "inputs": [
        {
          "internalType": "address",
          "name": "newOwner",
          "type": "address"
        }
      ],
      "name": "transferOwnership",
      "outputs": [],
      "stateMutability": "nonpayable",
      "type": "function"
    },
    {
      "inputs": [],
      "name": "treasury",
      "outputs": [
        {
          "internalType": "address",
          "name": "",
          "type": "address"
        }
      ],
      "stateMutability": "view",
      "type": "function"
    }
  ],
  "transactionHash": "0x3a01eab139eaa3c897be61d00b6582557dd81c329c74acf080b76cc785f9bd55",
  "args": [
    "100000000000000000000",
    "0x4Aa6Da4ca5d76e8d5e3ACD11B92Ab22D564F1fcb"
  ],
  "numDeployments": 1,
  "solcInputHash": "2c70a291d1615fb4f203f13ec108c91c",
  "bytecode": "0x608060405260006006556113886007553480156200001c57600080fd5b5060405162001b8c38038062001b8c8339810160408190526200003f9162000335565b6040518060400160405280600981526020016808cc2ecdee4408aa8960bb1b8152506040518060400160405280600981526020016808c82ac9ea4408aa8960bb1b81525081600390805190602001906200009b9291906200028f565b508051620000b19060049060208401906200028f565b50506005805460ff19166012179055506000620000cb3390565b60058054610100600160a81b0319166101006001600160a01b03841690810291909117909155604051919250906000907f8be0079c531659141344cd1fd0a4f28419497f9722a3daafe3b4186f6b6457e0908290a35062000152336200013360055460ff1690565b6200014090600a62000487565b6200014c90856200049f565b62000179565b600880546001600160a01b0319166001600160a01b039290921691909117905550620004fe565b6001600160a01b038216620001d45760405162461bcd60e51b815260206004820152601f60248201527f45524332303a206d696e7420746f20746865207a65726f206164647265737300604482015260640160405180910390fd5b620001f0816002546200027860201b62000d391790919060201c565b6002556001600160a01b038216600090815260208181526040909120546200022391839062000d3962000278821b17901c565b6001600160a01b038316600081815260208181526040808320949094559251848152919290917fddf252ad1be2c89b69c2b068fc378daa952ba7f163c4a11628f55a4df523b3ef910160405180910390a35050565b808201828110156200028957600080fd5b92915050565b8280546200029d90620004c1565b90600052602060002090601f016020900481019282620002c157600085556200030c565b82601f10620002dc57805160ff19168380011785556200030c565b828001600101855582156200030c579182015b828111156200030c578251825591602001919060010190620002ef565b506200031a9291506200031e565b5090565b5b808211156200031a57600081556001016200031f565b600080604083850312156200034957600080fd5b825160208401519092506001600160a01b03811681146200036957600080fd5b809150509250929050565b634e487b7160e01b600052601160045260246000fd5b600181815b80851115620003cb578160001904821115620003af57620003af62000374565b80851615620003bd57918102915b93841c93908002906200038f565b509250929050565b600082620003e45750600162000289565b81620003f35750600062000289565b81600181146200040c5760028114620004175762000437565b600191505062000289565b60ff8411156200042b576200042b62000374565b50506001821b62000289565b5060208310610133831016604e8410600b84101617156200045c575081810a62000289565b6200046883836200038a565b80600019048211156200047f576200047f62000374565b029392505050565b60006200049860ff841683620003d3565b9392505050565b6000816000190483118215151615620004bc57620004bc62000374565b500290565b600181811c90821680620004d657607f821691505b60208210811415620004f857634e487b7160e01b600052602260045260246000fd5b50919050565b61167e806200050e6000396000f3fe608060405234801561001057600080fd5b50600436106101a35760003560e01c806370a08231116100ee578063a9059cbb11610097578063dc1052e211610071578063dc1052e2146103a6578063dd62ed3e146103b9578063f0f44260146103ff578063f2fde38b1461041257600080fd5b8063a9059cbb14610377578063c16dd4a41461038a578063cc1776d31461039d57600080fd5b80638da5cb5b116100c85780638da5cb5b1461033957806395d89b411461035c578063a457c2d71461036457600080fd5b806370a08231146102e8578063715018a61461031e5780638cd09d501461032657600080fd5b806323b872dd116101505780633ecad2711161012a5780633ecad271146102775780634f7041a51461029a57806361d027b3146102a357600080fd5b806323b872dd1461023c578063313ce5671461024f578063395093511461026457600080fd5b806316c2be6b1161018157806316c2be6b146101fc57806318160ddd1461021f5780631dc610401461022757600080fd5b8063059f8b16146101a857806306fdde03146101c4578063095ea7b3146101d9575b600080fd5b6101b161271081565b6040519081526020015b60405180910390f35b6101cc610425565b6040516101bb919061131e565b6101ec6101e73660046113ba565b6104b7565b60405190151581526020016101bb565b6101ec61020a3660046113e4565b600a6020526000908152604090205460ff1681565b6002546101b1565b61023a6102353660046113ff565b6104ce565b005b6101ec61024a36600461143b565b6105b0565b60055460405160ff90911681526020016101bb565b6101ec6102723660046113ba565b610626565b6101ec6102853660046113e4565b60096020526000908152604090205460ff1681565b6101b160065481565b6008546102c39073ffffffffffffffffffffffffffffffffffffffff1681565b60405173ffffffffffffffffffffffffffffffffffffffff90911681526020016101bb565b6101b16102f63660046113e4565b73ffffffffffffffffffffffffffffffffffffffff1660009081526020819052604090205490565b61023a610669565b61023a610334366004611477565b610764565b600554610100900473ffffffffffffffffffffffffffffffffffffffff166102c3565b6101cc61085c565b6101ec6103723660046113ba565b61086b565b6101ec6103853660046113ba565b6108c7565b61023a6103983660046113ff565b6108d4565b6101b160075481565b61023a6103b4366004611477565b6109b1565b6101b16103c7366004611490565b73ffffffffffffffffffffffffffffffffffffffff918216600090815260016020908152604080832093909416825291909152205490565b61023a61040d3660046113e4565b610aa9565b61023a6104203660046113e4565b610b77565b606060038054610434906114c3565b80601f0160208091040260200160405190810160405280929190818152602001828054610460906114c3565b80156104ad5780601f10610482576101008083540402835291602001916104ad565b820191906000526020600020905b81548152906001019060200180831161049057829003601f168201915b5050505050905090565b60006104c4338484610d49565b5060015b92915050565b60055473ffffffffffffffffffffffffffffffffffffffff61010090910416331461055a576040517f08c379a000000000000000000000000000000000000000000000000000000000815260206004820181905260248201527f4f776e61626c653a2063616c6c6572206973206e6f7420746865206f776e657260448201526064015b60405180910390fd5b73ffffffffffffffffffffffffffffffffffffffff919091166000908152600a6020526040902080547fffffffffffffffffffffffffffffffffffffffffffffffffffffffffffffff0016911515919091179055565b60006105bd848484610efd565b61061c8433610617856040518060600160405280602881526020016115fc6028913973ffffffffffffffffffffffffffffffffffffffff8a166000908152600160209081526040808320338452909152902054919061100d565b610d49565b5060019392505050565b33600081815260016020908152604080832073ffffffffffffffffffffffffffffffffffffffff8716845290915281205490916104c49185906106179086610d39565b60055473ffffffffffffffffffffffffffffffffffffffff6101009091041633146106f0576040517f08c379a000000000000000000000000000000000000000000000000000000000815260206004820181905260248201527f4f776e61626c653a2063616c6c6572206973206e6f7420746865206f776e65726044820152606401610551565b600554604051600091610100900473ffffffffffffffffffffffffffffffffffffffff16907f8be0079c531659141344cd1fd0a4f28419497f9722a3daafe3b4186f6b6457e0908390a3600580547fffffffffffffffffffffff0000000000000000000000000000000000000000ff169055565b60055473ffffffffffffffffffffffffffffffffffffffff6101009091041633146107eb576040517f08c379a000000000000000000000000000000000000000000000000000000000815260206004820181905260248201527f4f776e61626c653a2063616c6c6572206973206e6f7420746865206f776e65726044820152606401610551565b612710811115610857576040517f08c379a000000000000000000000000000000000000000000000000000000000815260206004820152601160248201527f53656c6c2074617820746f6f20686967680000000000000000000000000000006044820152606401610551565b600755565b606060048054610434906114c3565b60006104c43384610617856040518060600160405280602581526020016116246025913933600090815260016020908152604080832073ffffffffffffffffffffffffffffffffffffffff8d168452909152902054919061100d565b60006104c4338484610efd565b60055473ffffffffffffffffffffffffffffffffffffffff61010090910416331461095b576040517f08c379a000000000000000000000000000000000000000000000000000000000815260206004820181905260248201527f4f776e61626c653a2063616c6c6572206973206e6f7420746865206f776e65726044820152606401610551565b73ffffffffffffffffffffffffffffffffffffffff91909116600090815260096020526040902080547fffffffffffffffffffffffffffffffffffffffffffffffffffffffffffffff0016911515919091179055565b60055473ffffffffffffffffffffffffffffffffffffffff610100909104163314610a38576040517f08c379a000000000000000000000000000000000000000000000000000000000815260206004820181905260248201527f4f776e61626c653a2063616c6c6572206973206e6f7420746865206f776e65726044820152606401610551565b612710811115610aa4576040517f08c379a000000000000000000000000000000000000000000000000000000000815260206004820152601060248201527f4275792074617820746f6f2068696768000000000000000000000000000000006044820152606401610551565b600655565b60055473ffffffffffffffffffffffffffffffffffffffff610100909104163314610b30576040517f08c379a000000000000000000000000000000000000000000000000000000000815260206004820181905260248201527f4f776e61626c653a2063616c6c6572206973206e6f7420746865206f776e65726044820152606401610551565b600880547fffffffffffffffffffffffff00000000000000000000000000000000000000001673ffffffffffffffffffffffffffffffffffffffff92909216919091179055565b60055473ffffffffffffffffffffffffffffffffffffffff610100909104163314610bfe576040517f08c379a000000000000000000000000000000000000000000000000000000000815260206004820181905260248201527f4f776e61626c653a2063616c6c6572206973206e6f7420746865206f776e65726044820152606401610551565b73ffffffffffffffffffffffffffffffffffffffff8116610ca1576040517f08c379a000000000000000000000000000000000000000000000000000000000815260206004820152602660248201527f4f776e61626c653a206e6577206f776e657220697320746865207a65726f206160448201527f64647265737300000000000000000000000000000000000000000000000000006064820152608401610551565b60055460405173ffffffffffffffffffffffffffffffffffffffff80841692610100900416907f8be0079c531659141344cd1fd0a4f28419497f9722a3daafe3b4186f6b6457e090600090a36005805473ffffffffffffffffffffffffffffffffffffffff909216610100027fffffffffffffffffffffff0000000000000000000000000000000000000000ff909216919091179055565b808201828110156104c857600080fd5b73ffffffffffffffffffffffffffffffffffffffff8316610deb576040517f08c379a0000000000000000000000000000000000000000000000000000000008152602060048201526024808201527f45524332303a20617070726f76652066726f6d20746865207a65726f2061646460448201527f72657373000000000000000000000000000000000000000000000000000000006064820152608401610551565b73ffffffffffffffffffffffffffffffffffffffff8216610e8e576040517f08c379a000000000000000000000000000000000000000000000000000000000815260206004820152602260248201527f45524332303a20617070726f766520746f20746865207a65726f20616464726560448201527f73730000000000000000000000000000000000000000000000000000000000006064820152608401610551565b73ffffffffffffffffffffffffffffffffffffffff83811660008181526001602090815260408083209487168084529482529182902085905590518481527f8c5be1e5ebec7d5bd14f71427d1e84f3dd0314c0f7b2291e5b200ac8c7c3b92591015b60405180910390a3505050565b73ffffffffffffffffffffffffffffffffffffffff83166000908152600a602052604081205460ff1680610f56575073ffffffffffffffffffffffffffffffffffffffff83166000908152600a602052604090205460ff165b15610f6c57610f66848484611054565b50505050565b610f76848461127e565b15610f9d5761271060065483610f8c9190611546565b610f969190611583565b9050610fca565b610fa784846112d0565b15610fca5761271060075483610fbd9190611546565b610fc79190611583565b90505b801561100257600854610ff590859073ffffffffffffffffffffffffffffffffffffffff1683611054565b610fff81836115be565b91505b610f66848484611054565b818303818482111561104c576040517f08c379a0000000000000000000000000000000000000000000000000000000008152600401610551919061131e565b509392505050565b73ffffffffffffffffffffffffffffffffffffffff83166110f7576040517f08c379a000000000000000000000000000000000000000000000000000000000815260206004820152602560248201527f45524332303a207472616e736665722066726f6d20746865207a65726f20616460448201527f64726573730000000000000000000000000000000000000000000000000000006064820152608401610551565b73ffffffffffffffffffffffffffffffffffffffff821661119a576040517f08c379a000000000000000000000000000000000000000000000000000000000815260206004820152602360248201527f45524332303a207472616e7366657220746f20746865207a65726f206164647260448201527f65737300000000000000000000000000000000000000000000000000000000006064820152608401610551565b6111e4816040518060600160405280602681526020016115d66026913973ffffffffffffffffffffffffffffffffffffffff8616600090815260208190526040902054919061100d565b73ffffffffffffffffffffffffffffffffffffffff80851660009081526020819052604080822093909355908416815220546112209082610d39565b73ffffffffffffffffffffffffffffffffffffffff8381166000818152602081815260409182902094909455518481529092918616917fddf252ad1be2c89b69c2b068fc378daa952ba7f163c4a11628f55a4df523b3ef9101610ef0565b73ffffffffffffffffffffffffffffffffffffffff821660009081526009602052604081205460ff1680156112c9575073ffffffffffffffffffffffffffffffffffffffff82163014155b9392505050565b73ffffffffffffffffffffffffffffffffffffffff811660009081526009602052604081205460ff1680156112c95750505073ffffffffffffffffffffffffffffffffffffffff1630141590565b600060208083528351808285015260005b8181101561134b5785810183015185820160400152820161132f565b8181111561135d576000604083870101525b50601f017fffffffffffffffffffffffffffffffffffffffffffffffffffffffffffffffe016929092016040019392505050565b803573ffffffffffffffffffffffffffffffffffffffff811681146113b557600080fd5b919050565b600080604083850312156113cd57600080fd5b6113d683611391565b946020939093013593505050565b6000602082840312156113f657600080fd5b6112c982611391565b6000806040838503121561141257600080fd5b61141b83611391565b91506020830135801515811461143057600080fd5b809150509250929050565b60008060006060848603121561145057600080fd5b61145984611391565b925061146760208501611391565b9150604084013590509250925092565b60006020828403121561148957600080fd5b5035919050565b600080604083850312156114a357600080fd5b6114ac83611391565b91506114ba60208401611391565b90509250929050565b600181811c908216806114d757607f821691505b60208210811415611511577f4e487b7100000000000000000000000000000000000000000000000000000000600052602260045260246000fd5b50919050565b7f4e487b7100000000000000000000000000000000000000000000000000000000600052601160045260246000fd5b6000817fffffffffffffffffffffffffffffffffffffffffffffffffffffffffffffffff048311821515161561157e5761157e611517565b500290565b6000826115b9577f4e487b7100000000000000000000000000000000000000000000000000000000600052601260045260246000fd5b500490565b6000828210156115d0576115d0611517565b50039056fe45524332303a207472616e7366657220616d6f756e7420657863656564732062616c616e636545524332303a207472616e7366657220616d6f756e74206578636565647320616c6c6f77616e636545524332303a2064656372656173656420616c6c6f77616e63652062656c6f77207a65726fa264697066735822122049cab13658cfbe1054197a16f953ebd42be78d24fe4a42fcc3b18f41303134de64736f6c634300080a0033",
  "devdoc": {
    "kind": "dev",
    "methods": {
      "allowance(address,address)": {
        "details": "See {IERC20-allowance}."
      },
      "approve(address,uint256)": {
        "details": "See {IERC20-approve}. Requirements: - `spender` cannot be the zero address."
      },
      "balanceOf(address)": {
        "details": "See {IERC20-balanceOf}."
      },
      "decimals()": {
        "details": "Returns the number of decimals used to get its user representation. For example, if `decimals` equals `2`, a balance of `505` tokens should be displayed to a user as `5,05` (`505 / 10 ** 2`). Tokens usually opt for a value of 18, imitating the relationship between Ether and Wei. This is the value {ERC20} uses, unless {_setupDecimals} is called. NOTE: This information is only used for _display_ purposes: it in no way affects any of the arithmetic of the contract, including {IERC20-balanceOf} and {IERC20-transfer}."
      },
      "decreaseAllowance(address,uint256)": {
        "details": "Atomically decreases the allowance granted to `spender` by the caller. This is an alternative to {approve} that can be used as a mitigation for problems described in {IERC20-approve}. Emits an {Approval} event indicating the updated allowance. Requirements: - `spender` cannot be the zero address. - `spender` must have allowance for the caller of at least `subtractedValue`."
      },
      "increaseAllowance(address,uint256)": {
        "details": "Atomically increases the allowance granted to `spender` by the caller. This is an alternative to {approve} that can be used as a mitigation for problems described in {IERC20-approve}. Emits an {Approval} event indicating the updated allowance. Requirements: - `spender` cannot be the zero address."
      },
      "name()": {
        "details": "Returns the name of the token."
      },
      "owner()": {
        "details": "Returns the address of the current owner."
      },
      "renounceOwnership()": {
        "details": "Leaves the contract without owner. It will not be possible to call `onlyOwner` functions anymore. Can only be called by the current owner. NOTE: Renouncing ownership will leave the contract without an owner, thereby removing any functionality that is only available to the owner."
      },
      "symbol()": {
        "details": "Returns the symbol of the token, usually a shorter version of the name."
      },
      "totalSupply()": {
        "details": "See {IERC20-totalSupply}."
      },
      "transfer(address,uint256)": {
        "details": "See {IERC20-transfer}. Requirements: - `recipient` cannot be the zero address. - the caller must have a balance of at least `amount`."
      },
      "transferFrom(address,address,uint256)": {
        "details": "See {IERC20-transferFrom}. Emits an {Approval} event indicating the updated allowance. This is not required by the EIP. See the note at the beginning of {ERC20}; Requirements: - `sender` and `recipient` cannot be the zero address. - `sender` must have a balance of at least `amount`. - the caller must have allowance for ``sender``'s tokens of at least `amount`."
      },
      "transferOwnership(address)": {
        "details": "Transfers ownership of the contract to a new account (`newOwner`). Can only be called by the current owner."
      }
    },
    "version": 1
  },
  "userdoc": {
    "kind": "user",
    "methods": {},
    "version": 1
  },
  "storageLayout": {
    "storage": [
      {
        "astId": 954,
        "contract": "contracts/core-v3/protocol/tokenization/favor/FavorETH.sol:FavorETH",
        "label": "_balances",
        "offset": 0,
        "slot": "0",
        "type": "t_mapping(t_address,t_uint256)"
      },
      {
        "astId": 960,
        "contract": "contracts/core-v3/protocol/tokenization/favor/FavorETH.sol:FavorETH",
        "label": "_allowances",
        "offset": 0,
        "slot": "1",
        "type": "t_mapping(t_address,t_mapping(t_address,t_uint256))"
      },
      {
        "astId": 962,
        "contract": "contracts/core-v3/protocol/tokenization/favor/FavorETH.sol:FavorETH",
        "label": "_totalSupply",
        "offset": 0,
        "slot": "2",
        "type": "t_uint256"
      },
      {
        "astId": 964,
        "contract": "contracts/core-v3/protocol/tokenization/favor/FavorETH.sol:FavorETH",
        "label": "_name",
        "offset": 0,
        "slot": "3",
        "type": "t_string_storage"
      },
      {
        "astId": 966,
        "contract": "contracts/core-v3/protocol/tokenization/favor/FavorETH.sol:FavorETH",
        "label": "_symbol",
        "offset": 0,
        "slot": "4",
        "type": "t_string_storage"
      },
      {
        "astId": 968,
        "contract": "contracts/core-v3/protocol/tokenization/favor/FavorETH.sol:FavorETH",
        "label": "_decimals",
        "offset": 0,
        "slot": "5",
        "type": "t_uint8"
      },
      {
        "astId": 1633,
        "contract": "contracts/core-v3/protocol/tokenization/favor/FavorETH.sol:FavorETH",
        "label": "_owner",
        "offset": 1,
        "slot": "5",
        "type": "t_address"
      },
      {
        "astId": 32482,
        "contract": "contracts/core-v3/protocol/tokenization/favor/FavorETH.sol:FavorETH",
        "label": "buyTax",
        "offset": 0,
        "slot": "6",
        "type": "t_uint256"
      },
      {
        "astId": 32485,
        "contract": "contracts/core-v3/protocol/tokenization/favor/FavorETH.sol:FavorETH",
        "label": "sellTax",
        "offset": 0,
        "slot": "7",
        "type": "t_uint256"
      },
      {
        "astId": 32487,
        "contract": "contracts/core-v3/protocol/tokenization/favor/FavorETH.sol:FavorETH",
        "label": "treasury",
        "offset": 0,
        "slot": "8",
        "type": "t_address"
      },
      {
        "astId": 32491,
        "contract": "contracts/core-v3/protocol/tokenization/favor/FavorETH.sol:FavorETH",
        "label": "isMarketPair",
        "offset": 0,
        "slot": "9",
        "type": "t_mapping(t_address,t_bool)"
      },
      {
        "astId": 32495,
        "contract": "contracts/core-v3/protocol/tokenization/favor/FavorETH.sol:FavorETH",
        "label": "isTaxExempt",
        "offset": 0,
        "slot": "10",
        "type": "t_mapping(t_address,t_bool)"
      }
    ],
    "types": {
      "t_address": {
        "encoding": "inplace",
        "label": "address",
        "numberOfBytes": "20"
      },
      "t_bool": {
        "encoding": "inplace",
        "label": "bool",
        "numberOfBytes": "1"
      },
      "t_mapping(t_address,t_bool)": {
        "encoding": "mapping",
        "key": "t_address",
        "label": "mapping(address => bool)",
        "numberOfBytes": "32",
        "value": "t_bool"
      },
      "t_mapping(t_address,t_mapping(t_address,t_uint256))": {
        "encoding": "mapping",
        "key": "t_address",
        "label": "mapping(address => mapping(address => uint256))",
        "numberOfBytes": "32",
        "value": "t_mapping(t_address,t_uint256)"
      },
      "t_mapping(t_address,t_uint256)": {
        "encoding": "mapping",
        "key": "t_address",
        "label": "mapping(address => uint256)",
        "numberOfBytes": "32",
        "value": "t_uint256"
      },
      "t_string_storage": {
        "encoding": "bytes",
        "label": "string",
        "numberOfBytes": "32"
      },
      "t_uint256": {
        "encoding": "inplace",
        "label": "uint256",
        "numberOfBytes": "32"
      },
      "t_uint8": {
        "encoding": "inplace",
        "label": "uint8",
        "numberOfBytes": "1"
      }
    }
  }
}