{
  "address": "0x1209e11DCa27124c321dD840bbff94beD451C4d3",
  "abi": [
    {
      "inputs": [
        {
          "internalType": "contract IPoolAddressesProvider",
          "name": "addressesProvider",
          "type": "address"
        }
      ],
      "stateMutability": "nonpayable",
      "type": "constructor"
    },
    {
      "inputs": [],
      "name": "ADDRESSES_PROVIDER",
      "outputs": [
        {
          "internalType": "contract IPoolAddressesProvider",
          "name": "",
          "type": "address"
        }
      ],
      "stateMutability": "view",
      "type": "function"
    },
    {
      "inputs": [
        {
          "internalType": "address",
          "name": "asset",
          "type": "address"
        }
      ],
      "name": "getATokenTotalSupply",
      "outputs": [
        {
          "internalType": "uint256",
          "name": "",
          "type": "uint256"
        }
      ],
      "stateMutability": "view",
      "type": "function"
    },
    {
      "inputs": [],
      "name": "getAllATokens",
      "outputs": [
        {
          "components": [
            {
              "internalType": "string",
              "name": "symbol",
              "type": "string"
            },
            {
              "internalType": "address",
              "name": "tokenAddress",
              "type": "address"
            }
          ],
          "internalType": "struct IPoolDataProvider.TokenData[]",
          "name": "",
          "type": "tuple[]"
        }
      ],
      "stateMutability": "view",
      "type": "function"
    },
    {
      "inputs": [],
      "name": "getAllReservesTokens",
      "outputs": [
        {
          "components": [
            {
              "internalType": "string",
              "name": "symbol",
              "type": "string"
            },
            {
              "internalType": "address",
              "name": "tokenAddress",
              "type": "address"
            }
          ],
          "internalType": "struct IPoolDataProvider.TokenData[]",
          "name": "",
          "type": "tuple[]"
        }
      ],
      "stateMutability": "view",
      "type": "function"
    },
    {
      "inputs": [
        {
          "internalType": "address",
          "name": "asset",
          "type": "address"
        }
      ],
      "name": "getDebtCeiling",
      "outputs": [
        {
          "internalType": "uint256",
          "name": "",
          "type": "uint256"
        }
      ],
      "stateMutability": "view",
      "type": "function"
    },
    {
      "inputs": [],
      "name": "getDebtCeilingDecimals",
      "outputs": [
        {
          "internalType": "uint256",
          "name": "",
          "type": "uint256"
        }
      ],
      "stateMutability": "pure",
      "type": "function"
    },
    {
      "inputs": [
        {
          "internalType": "address",
          "name": "asset",
          "type": "address"
        }
      ],
      "name": "getFlashLoanEnabled",
      "outputs": [
        {
          "internalType": "bool",
          "name": "",
          "type": "bool"
        }
      ],
      "stateMutability": "view",
      "type": "function"
    },
    {
      "inputs": [
        {
          "internalType": "address",
          "name": "asset",
          "type": "address"
        }
      ],
      "name": "getInterestRateStrategyAddress",
      "outputs": [
        {
          "internalType": "address",
          "name": "irStrategyAddress",
          "type": "address"
        }
      ],
      "stateMutability": "view",
      "type": "function"
    },
    {
      "inputs": [
        {
          "internalType": "address",
          "name": "asset",
          "type": "address"
        }
      ],
      "name": "getLiquidationProtocolFee",
      "outputs": [
        {
          "internalType": "uint256",
          "name": "",
          "type": "uint256"
        }
      ],
      "stateMutability": "view",
      "type": "function"
    },
    {
      "inputs": [
        {
          "internalType": "address",
          "name": "asset",
          "type": "address"
        }
      ],
      "name": "getPaused",
      "outputs": [
        {
          "internalType": "bool",
          "name": "isPaused",
          "type": "bool"
        }
      ],
      "stateMutability": "view",
      "type": "function"
    },
    {
      "inputs": [
        {
          "internalType": "address",
          "name": "asset",
          "type": "address"
        }
      ],
      "name": "getReserveCaps",
      "outputs": [
        {
          "internalType": "uint256",
          "name": "borrowCap",
          "type": "uint256"
        },
        {
          "internalType": "uint256",
          "name": "supplyCap",
          "type": "uint256"
        }
      ],
      "stateMutability": "view",
      "type": "function"
    },
    {
      "inputs": [
        {
          "internalType": "address",
          "name": "asset",
          "type": "address"
        }
      ],
      "name": "getReserveConfigurationData",
      "outputs": [
        {
          "internalType": "uint256",
          "name": "decimals",
          "type": "uint256"
        },
        {
          "internalType": "uint256",
          "name": "ltv",
          "type": "uint256"
        },
        {
          "internalType": "uint256",
          "name": "liquidationThreshold",
          "type": "uint256"
        },
        {
          "internalType": "uint256",
          "name": "liquidationBonus",
          "type": "uint256"
        },
        {
          "internalType": "uint256",
          "name": "reserveFactor",
          "type": "uint256"
        },
        {
          "internalType": "bool",
          "name": "usageAsCollateralEnabled",
          "type": "bool"
        },
        {
          "internalType": "bool",
          "name": "borrowingEnabled",
          "type": "bool"
        },
        {
          "internalType": "bool",
          "name": "stableBorrowRateEnabled",
          "type": "bool"
        },
        {
          "internalType": "bool",
          "name": "isActive",
          "type": "bool"
        },
        {
          "internalType": "bool",
          "name": "isFrozen",
          "type": "bool"
        }
      ],
      "stateMutability": "view",
      "type": "function"
    },
    {
      "inputs": [
        {
          "internalType": "address",
          "name": "asset",
          "type": "address"
        }
      ],
      "name": "getReserveData",
      "outputs": [
        {
          "internalType": "uint256",
          "name": "unbacked",
          "type": "uint256"
        },
        {
          "internalType": "uint256",
          "name": "accruedToTreasuryScaled",
          "type": "uint256"
        },
        {
          "internalType": "uint256",
          "name": "totalAToken",
          "type": "uint256"
        },
        {
          "internalType": "uint256",
          "name": "totalStableDebt",
          "type": "uint256"
        },
        {
          "internalType": "uint256",
          "name": "totalVariableDebt",
          "type": "uint256"
        },
        {
          "internalType": "uint256",
          "name": "liquidityRate",
          "type": "uint256"
        },
        {
          "internalType": "uint256",
          "name": "variableBorrowRate",
          "type": "uint256"
        },
        {
          "internalType": "uint256",
          "name": "stableBorrowRate",
          "type": "uint256"
        },
        {
          "internalType": "uint256",
          "name": "averageStableBorrowRate",
          "type": "uint256"
        },
        {
          "internalType": "uint256",
          "name": "liquidityIndex",
          "type": "uint256"
        },
        {
          "internalType": "uint256",
          "name": "variableBorrowIndex",
          "type": "uint256"
        },
        {
          "internalType": "uint40",
          "name": "lastUpdateTimestamp",
          "type": "uint40"
        }
      ],
      "stateMutability": "view",
      "type": "function"
    },
    {
      "inputs": [
        {
          "internalType": "address",
          "name": "asset",
          "type": "address"
        }
      ],
      "name": "getReserveEModeCategory",
      "outputs": [
        {
          "internalType": "uint256",
          "name": "",
          "type": "uint256"
        }
      ],
      "stateMutability": "view",
      "type": "function"
    },
    {
      "inputs": [
        {
          "internalType": "address",
          "name": "asset",
          "type": "address"
        }
      ],
      "name": "getReserveTokensAddresses",
      "outputs": [
        {
          "internalType": "address",
          "name": "aTokenAddress",
          "type": "address"
        },
        {
          "internalType": "address",
          "name": "stableDebtTokenAddress",
          "type": "address"
        },
        {
          "internalType": "address",
          "name": "variableDebtTokenAddress",
          "type": "address"
        }
      ],
      "stateMutability": "view",
      "type": "function"
    },
    {
      "inputs": [
        {
          "internalType": "address",
          "name": "asset",
          "type": "address"
        }
      ],
      "name": "getSiloedBorrowing",
      "outputs": [
        {
          "internalType": "bool",
          "name": "",
          "type": "bool"
        }
      ],
      "stateMutability": "view",
      "type": "function"
    },
    {
      "inputs": [
        {
          "internalType": "address",
          "name": "asset",
          "type": "address"
        }
      ],
      "name": "getTotalDebt",
      "outputs": [
        {
          "internalType": "uint256",
          "name": "",
          "type": "uint256"
        }
      ],
      "stateMutability": "view",
      "type": "function"
    },
    {
      "inputs": [
        {
          "internalType": "address",
          "name": "asset",
          "type": "address"
        }
      ],
      "name": "getUnbackedMintCap",
      "outputs": [
        {
          "internalType": "uint256",
          "name": "",
          "type": "uint256"
        }
      ],
      "stateMutability": "view",
      "type": "function"
    },
    {
      "inputs": [
        {
          "internalType": "address",
          "name": "asset",
          "type": "address"
        },
        {
          "internalType": "address",
          "name": "user",
          "type": "address"
        }
      ],
      "name": "getUserReserveData",
      "outputs": [
        {
          "internalType": "uint256",
          "name": "currentATokenBalance",
          "type": "uint256"
        },
        {
          "internalType": "uint256",
          "name": "currentStableDebt",
          "type": "uint256"
        },
        {
          "internalType": "uint256",
          "name": "currentVariableDebt",
          "type": "uint256"
        },
        {
          "internalType": "uint256",
          "name": "principalStableDebt",
          "type": "uint256"
        },
        {
          "internalType": "uint256",
          "name": "scaledVariableDebt",
          "type": "uint256"
        },
        {
          "internalType": "uint256",
          "name": "stableBorrowRate",
          "type": "uint256"
        },
        {
          "internalType": "uint256",
          "name": "liquidityRate",
          "type": "uint256"
        },
        {
          "internalType": "uint40",
          "name": "stableRateLastUpdated",
          "type": "uint40"
        },
        {
          "internalType": "bool",
          "name": "usageAsCollateralEnabled",
          "type": "bool"
        }
      ],
      "stateMutability": "view",
      "type": "function"
    }
  ],
  "transactionHash": "0xeb288651c70f9ac886982ab5e1b23b3d6940e729a486906344bd7674e5456b3a",
  "args": [
    "0xc0d03D8249eD557aB1c54f46d0dc13a0C0678f25"
  ],
  "numDeployments": 1,
  "solcInputHash": "1eaa4365c44e38f8790053afb1c34d22",
  "bytecode": "0x60a06040523480156200001157600080fd5b506040516200311338038062003113833981016040819052620000349162000046565b6001600160a01b031660805262000078565b6000602082840312156200005957600080fd5b81516001600160a01b03811681146200007157600080fd5b9392505050565b608051613001620001126000396000818161015b015281816104580152818161059b015281816106c101528181610c70015281816110510152818161118b015281816112c801528181611463015281816115aa015281816117c30152818161195e01528181611a9101528181611bc40152818161203a015281816121b3015281816122f801528181612433015261277901526130016000f3fe608060405234801561001057600080fd5b50600436106101515760003560e01c806351460e25116100cd578063b55d990411610081578063d7ed3ef411610066578063d7ed3ef414610425578063f561ae4114610438578063fcf40a621461044057600080fd5b8063b55d9904146103b8578063d2493b6c146103db57600080fd5b806369b169e1116100b257806369b169e1146103895780637ba1ae3614610390578063b316ff89146103a357600080fd5b806351460e25146103635780636744362a1461037657600080fd5b80633c798109116101245780633e150141116101095780633e150141146102c157806346fbe558146103285780634d44ac4f1461035057600080fd5b80633c7981091461029b5780633cb8a622146102ae57600080fd5b80630542975c14610156578063163a0f20146101a757806328dd2d01146101c857806335ea6a7514610228575b600080fd5b61017d7f000000000000000000000000000000000000000000000000000000000000000081565b60405173ffffffffffffffffffffffffffffffffffffffff90911681526020015b60405180910390f35b6101ba6101b536600461295a565b610453565b60405190815260200161019e565b6101db6101d6366004612977565b61058a565b60408051998a5260208a0198909852968801959095526060870193909352608086019190915260a085015260c084015264ffffffffff1660e083015215156101008201526101200161019e565b61023b61023636600461295a565b610c5a565b604080519c8d5260208d019b909b52998b019890985260608a0196909652608089019490945260a088019290925260c087015260e086015261010085015261012084015261014083015264ffffffffff166101608201526101800161019e565b6101ba6102a936600461295a565b61104a565b6101ba6102bc36600461295a565b611184565b6102d46102cf36600461295a565b6112b5565b604080519a8b5260208b01999099529789019690965260608801949094526080870192909252151560a0860152151560c0850152151560e0840152151561010083015215156101208201526101400161019e565b61033b61033636600461295a565b61145b565b6040805192835260208301919091520161019e565b6101ba61035e36600461295a565b6115a5565b6101ba61037136600461295a565b6117be565b61017d61038436600461295a565b611959565b60026101ba565b6101ba61039e36600461295a565b611a8a565b6103ab611bbe565b60405161019e9190612a2a565b6103cb6103c636600461295a565b612033565b604051901515815260200161019e565b6103ee6103e936600461295a565b6121ab565b6040805173ffffffffffffffffffffffffffffffffffffffff9485168152928416602084015292169181019190915260600161019e565b6103cb61043336600461295a565b6122f3565b6103ab61242d565b6103cb61044e36600461295a565b612772565b6000807f000000000000000000000000000000000000000000000000000000000000000073ffffffffffffffffffffffffffffffffffffffff1663026b1d5f6040518163ffffffff1660e01b8152600401602060405180830381865afa1580156104c1573d6000803e3d6000fd5b505050506040513d601f19601f820116820180604052508101906104e59190612ae4565b6040517fc44b11f700000000000000000000000000000000000000000000000000000000815273ffffffffffffffffffffffffffffffffffffffff8581166004830152919091169063c44b11f790602401602060405180830381865afa158015610553573d6000803e3d6000fd5b505050506040513d601f19601f820116820180604052508101906105779190612beb565b805190915060a81c60ff165b9392505050565b6000806000806000806000806000807f000000000000000000000000000000000000000000000000000000000000000073ffffffffffffffffffffffffffffffffffffffff1663026b1d5f6040518163ffffffff1660e01b8152600401602060405180830381865afa158015610604573d6000803e3d6000fd5b505050506040513d601f19601f820116820180604052508101906106289190612ae4565b6040517f35ea6a7500000000000000000000000000000000000000000000000000000000815273ffffffffffffffffffffffffffffffffffffffff8e8116600483015291909116906335ea6a75906024016101e060405180830381865afa158015610697573d6000803e3d6000fd5b505050506040513d601f19601f820116820180604052508101906106bb9190612c4e565b905060007f000000000000000000000000000000000000000000000000000000000000000073ffffffffffffffffffffffffffffffffffffffff1663026b1d5f6040518163ffffffff1660e01b8152600401602060405180830381865afa15801561072a573d6000803e3d6000fd5b505050506040513d601f19601f8201168201806040525081019061074e9190612ae4565b6040517f4417a58300000000000000000000000000000000000000000000000000000000815273ffffffffffffffffffffffffffffffffffffffff8e811660048301529190911690634417a58390602401602060405180830381865afa1580156107bc573d6000803e3d6000fd5b505050506040513d601f19601f820116820180604052508101906107e09190612beb565b6101008301516040517f70a0823100000000000000000000000000000000000000000000000000000000815273ffffffffffffffffffffffffffffffffffffffff8f811660048301529293509116906370a0823190602401602060405180830381865afa158015610855573d6000803e3d6000fd5b505050506040513d601f19601f820116820180604052508101906108799190612d71565b6101408301516040517f70a0823100000000000000000000000000000000000000000000000000000000815273ffffffffffffffffffffffffffffffffffffffff8f81166004830152929d509116906370a0823190602401602060405180830381865afa1580156108ee573d6000803e3d6000fd5b505050506040513d601f19601f820116820180604052508101906109129190612d71565b6101208301516040517f70a0823100000000000000000000000000000000000000000000000000000000815273ffffffffffffffffffffffffffffffffffffffff8f81166004830152929b509116906370a0823190602401602060405180830381865afa158015610987573d6000803e3d6000fd5b505050506040513d601f19601f820116820180604052508101906109ab9190612d71565b6101208301516040517fc634dfaa00000000000000000000000000000000000000000000000000000000815273ffffffffffffffffffffffffffffffffffffffff8f81166004830152929c5091169063c634dfaa90602401602060405180830381865afa158015610a20573d6000803e3d6000fd5b505050506040513d601f19601f82011682018060405250810190610a449190612d71565b6101408301516040517f1da24f3e00000000000000000000000000000000000000000000000000000000815273ffffffffffffffffffffffffffffffffffffffff8f81166004830152929a50911690631da24f3e90602401602060405180830381865afa158015610ab9573d6000803e3d6000fd5b505050506040513d601f19601f82011682018060405250810190610add9190612d71565b965081604001516fffffffffffffffffffffffffffffffff16945081610120015173ffffffffffffffffffffffffffffffffffffffff1663e78c9b3b8d6040518263ffffffff1660e01b8152600401610b52919073ffffffffffffffffffffffffffffffffffffffff91909116815260200190565b602060405180830381865afa158015610b6f573d6000803e3d6000fd5b505050506040513d601f19601f82011682018060405250810190610b939190612d71565b6101208301516040517f79ce6b8c00000000000000000000000000000000000000000000000000000000815273ffffffffffffffffffffffffffffffffffffffff8f811660048301529298509116906379ce6b8c90602401602060405180830381865afa158015610c08573d6000803e3d6000fd5b505050506040513d601f19601f82011682018060405250810190610c2c9190612d8a565b9350610c498260e0015161ffff16826128a890919063ffffffff16565b925050509295985092959850929598565b60008060008060008060008060008060008060007f000000000000000000000000000000000000000000000000000000000000000073ffffffffffffffffffffffffffffffffffffffff1663026b1d5f6040518163ffffffff1660e01b8152600401602060405180830381865afa158015610cd9573d6000803e3d6000fd5b505050506040513d601f19601f82011682018060405250810190610cfd9190612ae4565b73ffffffffffffffffffffffffffffffffffffffff166335ea6a758f6040518263ffffffff1660e01b8152600401610d51919073ffffffffffffffffffffffffffffffffffffffff91909116815260200190565b6101e060405180830381865afa158015610d6f573d6000803e3d6000fd5b505050506040513d601f19601f82011682018060405250810190610d939190612c4e565b9050806101a0015181610180015182610100015173ffffffffffffffffffffffffffffffffffffffff166318160ddd6040518163ffffffff1660e01b8152600401602060405180830381865afa158015610df1573d6000803e3d6000fd5b505050506040513d601f19601f82011682018060405250810190610e159190612d71565b83610120015173ffffffffffffffffffffffffffffffffffffffff166318160ddd6040518163ffffffff1660e01b8152600401602060405180830381865afa158015610e65573d6000803e3d6000fd5b505050506040513d601f19601f82011682018060405250810190610e899190612d71565b84610140015173ffffffffffffffffffffffffffffffffffffffff166318160ddd6040518163ffffffff1660e01b8152600401602060405180830381865afa158015610ed9573d6000803e3d6000fd5b505050506040513d601f19601f82011682018060405250810190610efd9190612d71565b856040015186608001518760a0015188610120015173ffffffffffffffffffffffffffffffffffffffff166390f6fcf26040518163ffffffff1660e01b8152600401602060405180830381865afa158015610f5c573d6000803e3d6000fd5b505050506040513d601f19601f82011682018060405250810190610f809190612d71565b89602001518a606001518b60c001518b6fffffffffffffffffffffffffffffffff169b508a6fffffffffffffffffffffffffffffffff169a50866fffffffffffffffffffffffffffffffff169650856fffffffffffffffffffffffffffffffff169550846fffffffffffffffffffffffffffffffff169450826fffffffffffffffffffffffffffffffff169250816fffffffffffffffffffffffffffffffff1691509c509c509c509c509c509c509c509c509c509c509c509c505091939597999b5091939597999b565b600061117e7f000000000000000000000000000000000000000000000000000000000000000073ffffffffffffffffffffffffffffffffffffffff1663026b1d5f6040518163ffffffff1660e01b8152600401602060405180830381865afa1580156110ba573d6000803e3d6000fd5b505050506040513d601f19601f820116820180604052508101906110de9190612ae4565b6040517fc44b11f700000000000000000000000000000000000000000000000000000000815273ffffffffffffffffffffffffffffffffffffffff8581166004830152919091169063c44b11f790602401602060405180830381865afa15801561114c573d6000803e3d6000fd5b505050506040513d601f19601f820116820180604052508101906111709190612beb565b5160d41c64ffffffffff1690565b92915050565b600061117e7f000000000000000000000000000000000000000000000000000000000000000073ffffffffffffffffffffffffffffffffffffffff1663026b1d5f6040518163ffffffff1660e01b8152600401602060405180830381865afa1580156111f4573d6000803e3d6000fd5b505050506040513d601f19601f820116820180604052508101906112189190612ae4565b6040517fc44b11f700000000000000000000000000000000000000000000000000000000815273ffffffffffffffffffffffffffffffffffffffff8581166004830152919091169063c44b11f790602401602060405180830381865afa158015611286573d6000803e3d6000fd5b505050506040513d601f19601f820116820180604052508101906112aa9190612beb565b5160981c61ffff1690565b60008060008060008060008060008060007f000000000000000000000000000000000000000000000000000000000000000073ffffffffffffffffffffffffffffffffffffffff1663026b1d5f6040518163ffffffff1660e01b8152600401602060405180830381865afa158015611331573d6000803e3d6000fd5b505050506040513d601f19601f820116820180604052508101906113559190612ae4565b6040517fc44b11f700000000000000000000000000000000000000000000000000000000815273ffffffffffffffffffffffffffffffffffffffff8e81166004830152919091169063c44b11f790602401602060405180830381865afa1580156113c3573d6000803e3d6000fd5b505050506040513d601f19601f820116820180604052508101906113e79190612beb565b5160ff603082901c169d61ffff8083169e50601083901c81169d50602083901c81169c50604083901c169a508c151599506704000000000000008216151598506708000000000000008216151597506701000000000000008216151596506702000000000000009091161515945092505050565b60008061159b7f000000000000000000000000000000000000000000000000000000000000000073ffffffffffffffffffffffffffffffffffffffff1663026b1d5f6040518163ffffffff1660e01b8152600401602060405180830381865afa1580156114cc573d6000803e3d6000fd5b505050506040513d601f19601f820116820180604052508101906114f09190612ae4565b6040517fc44b11f700000000000000000000000000000000000000000000000000000000815273ffffffffffffffffffffffffffffffffffffffff8681166004830152919091169063c44b11f790602401602060405180830381865afa15801561155e573d6000803e3d6000fd5b505050506040513d601f19601f820116820180604052508101906115829190612beb565b51640fffffffff605082901c81169260749290921c1690565b9094909350915050565b6000807f000000000000000000000000000000000000000000000000000000000000000073ffffffffffffffffffffffffffffffffffffffff1663026b1d5f6040518163ffffffff1660e01b8152600401602060405180830381865afa158015611613573d6000803e3d6000fd5b505050506040513d601f19601f820116820180604052508101906116379190612ae4565b6040517f35ea6a7500000000000000000000000000000000000000000000000000000000815273ffffffffffffffffffffffffffffffffffffffff858116600483015291909116906335ea6a75906024016101e060405180830381865afa1580156116a6573d6000803e3d6000fd5b505050506040513d601f19601f820116820180604052508101906116ca9190612c4e565b905080610140015173ffffffffffffffffffffffffffffffffffffffff166318160ddd6040518163ffffffff1660e01b8152600401602060405180830381865afa15801561171c573d6000803e3d6000fd5b505050506040513d601f19601f820116820180604052508101906117409190612d71565b81610120015173ffffffffffffffffffffffffffffffffffffffff166318160ddd6040518163ffffffff1660e01b8152600401602060405180830381865afa158015611790573d6000803e3d6000fd5b505050506040513d601f19601f820116820180604052508101906117b49190612d71565b6105839190612dd4565b6000807f000000000000000000000000000000000000000000000000000000000000000073ffffffffffffffffffffffffffffffffffffffff1663026b1d5f6040518163ffffffff1660e01b8152600401602060405180830381865afa15801561182c573d6000803e3d6000fd5b505050506040513d601f19601f820116820180604052508101906118509190612ae4565b6040517f35ea6a7500000000000000000000000000000000000000000000000000000000815273ffffffffffffffffffffffffffffffffffffffff858116600483015291909116906335ea6a75906024016101e060405180830381865afa1580156118bf573d6000803e3d6000fd5b505050506040513d601f19601f820116820180604052508101906118e39190612c4e565b905080610100015173ffffffffffffffffffffffffffffffffffffffff166318160ddd6040518163ffffffff1660e01b8152600401602060405180830381865afa158015611935573d6000803e3d6000fd5b505050506040513d601f19601f820116820180604052508101906105839190612d71565b6000807f000000000000000000000000000000000000000000000000000000000000000073ffffffffffffffffffffffffffffffffffffffff1663026b1d5f6040518163ffffffff1660e01b8152600401602060405180830381865afa1580156119c7573d6000803e3d6000fd5b505050506040513d601f19601f820116820180604052508101906119eb9190612ae4565b6040517f35ea6a7500000000000000000000000000000000000000000000000000000000815273ffffffffffffffffffffffffffffffffffffffff858116600483015291909116906335ea6a75906024016101e060405180830381865afa158015611a5a573d6000803e3d6000fd5b505050506040513d601f19601f82011682018060405250810190611a7e9190612c4e565b61016001519392505050565b600061117e7f000000000000000000000000000000000000000000000000000000000000000073ffffffffffffffffffffffffffffffffffffffff1663026b1d5f6040518163ffffffff1660e01b8152600401602060405180830381865afa158015611afa573d6000803e3d6000fd5b505050506040513d601f19601f82011682018060405250810190611b1e9190612ae4565b6040517fc44b11f700000000000000000000000000000000000000000000000000000000815273ffffffffffffffffffffffffffffffffffffffff8581166004830152919091169063c44b11f790602401602060405180830381865afa158015611b8c573d6000803e3d6000fd5b505050506040513d601f19601f82011682018060405250810190611bb09190612beb565b5160b01c640fffffffff1690565b606060007f000000000000000000000000000000000000000000000000000000000000000073ffffffffffffffffffffffffffffffffffffffff1663026b1d5f6040518163ffffffff1660e01b8152600401602060405180830381865afa158015611c2d573d6000803e3d6000fd5b505050506040513d601f19601f82011682018060405250810190611c519190612ae4565b905060008173ffffffffffffffffffffffffffffffffffffffff1663d1946dbc6040518163ffffffff1660e01b8152600401600060405180830381865afa158015611ca0573d6000803e3d6000fd5b505050506040513d6000823e601f3d9081017fffffffffffffffffffffffffffffffffffffffffffffffffffffffffffffffe0168201604052611ce69190810190612dec565b90506000815167ffffffffffffffff811115611d0457611d04612b01565b604051908082528060200260200182016040528015611d4a57816020015b604080518082019091526060815260006020820152815260200190600190039081611d225790505b50905060005b825181101561202b57739f8f72aa9304c8b593d555f12ef6589cc3a579a273ffffffffffffffffffffffffffffffffffffffff16838281518110611d9657611d96612e9e565b602002602001015173ffffffffffffffffffffffffffffffffffffffff161415611e555760405180604001604052806040518060400160405280600381526020017f4d4b5200000000000000000000000000000000000000000000000000000000008152508152602001848381518110611e1257611e12612e9e565b602002602001015173ffffffffffffffffffffffffffffffffffffffff16815250828281518110611e4557611e45612e9e565b6020026020010181905250612019565b73eeeeeeeeeeeeeeeeeeeeeeeeeeeeeeeeeeeeeeee73ffffffffffffffffffffffffffffffffffffffff16838281518110611e9257611e92612e9e565b602002602001015173ffffffffffffffffffffffffffffffffffffffff161415611f0e5760405180604001604052806040518060400160405280600381526020017f45544800000000000000000000000000000000000000000000000000000000008152508152602001848381518110611e1257611e12612e9e565b6040518060400160405280848381518110611f2b57611f2b612e9e565b602002602001015173ffffffffffffffffffffffffffffffffffffffff166395d89b416040518163ffffffff1660e01b8152600401600060405180830381865afa158015611f7d573d6000803e3d6000fd5b505050506040513d6000823e601f3d9081017fffffffffffffffffffffffffffffffffffffffffffffffffffffffffffffffe0168201604052611fc39190810190612ecd565b8152602001848381518110611fda57611fda612e9e565b602002602001015173ffffffffffffffffffffffffffffffffffffffff1681525082828151811061200d5761200d612e9e565b60200260200101819052505b8061202381612f7f565b915050611d50565b509392505050565b60006121a17f000000000000000000000000000000000000000000000000000000000000000073ffffffffffffffffffffffffffffffffffffffff1663026b1d5f6040518163ffffffff1660e01b8152600401602060405180830381865afa1580156120a3573d6000803e3d6000fd5b505050506040513d601f19601f820116820180604052508101906120c79190612ae4565b6040517fc44b11f700000000000000000000000000000000000000000000000000000000815273ffffffffffffffffffffffffffffffffffffffff8581166004830152919091169063c44b11f790602401602060405180830381865afa158015612135573d6000803e3d6000fd5b505050506040513d601f19601f820116820180604052508101906121599190612beb565b51670100000000000000811615159167020000000000000082161515916704000000000000008116151591670800000000000000821615159167100000000000000016151590565b9695505050505050565b6000806000807f000000000000000000000000000000000000000000000000000000000000000073ffffffffffffffffffffffffffffffffffffffff1663026b1d5f6040518163ffffffff1660e01b8152600401602060405180830381865afa15801561221c573d6000803e3d6000fd5b505050506040513d601f19601f820116820180604052508101906122409190612ae4565b6040517f35ea6a7500000000000000000000000000000000000000000000000000000000815273ffffffffffffffffffffffffffffffffffffffff878116600483015291909116906335ea6a75906024016101e060405180830381865afa1580156122af573d6000803e3d6000fd5b505050506040513d601f19601f820116820180604052508101906122d39190612c4e565b610100810151610120820151610140909201519097919650945092505050565b6000807f000000000000000000000000000000000000000000000000000000000000000073ffffffffffffffffffffffffffffffffffffffff1663026b1d5f6040518163ffffffff1660e01b8152600401602060405180830381865afa158015612361573d6000803e3d6000fd5b505050506040513d601f19601f820116820180604052508101906123859190612ae4565b6040517fc44b11f700000000000000000000000000000000000000000000000000000000815273ffffffffffffffffffffffffffffffffffffffff8581166004830152919091169063c44b11f790602401602060405180830381865afa1580156123f3573d6000803e3d6000fd5b505050506040513d601f19601f820116820180604052508101906124179190612beb565b9050610583815167800000000000000016151590565b606060007f000000000000000000000000000000000000000000000000000000000000000073ffffffffffffffffffffffffffffffffffffffff1663026b1d5f6040518163ffffffff1660e01b8152600401602060405180830381865afa15801561249c573d6000803e3d6000fd5b505050506040513d601f19601f820116820180604052508101906124c09190612ae4565b905060008173ffffffffffffffffffffffffffffffffffffffff1663d1946dbc6040518163ffffffff1660e01b8152600401600060405180830381865afa15801561250f573d6000803e3d6000fd5b505050506040513d6000823e601f3d9081017fffffffffffffffffffffffffffffffffffffffffffffffffffffffffffffffe01682016040526125559190810190612dec565b90506000815167ffffffffffffffff81111561257357612573612b01565b6040519080825280602002602001820160405280156125b957816020015b6040805180820190915260608152600060208201528152602001906001900390816125915790505b50905060005b825181101561202b5760008473ffffffffffffffffffffffffffffffffffffffff166335ea6a758584815181106125f8576125f8612e9e565b60200260200101516040518263ffffffff1660e01b8152600401612638919073ffffffffffffffffffffffffffffffffffffffff91909116815260200190565b6101e060405180830381865afa158015612656573d6000803e3d6000fd5b505050506040513d601f19601f8201168201806040525081019061267a9190612c4e565b9050604051806040016040528082610100015173ffffffffffffffffffffffffffffffffffffffff166395d89b416040518163ffffffff1660e01b8152600401600060405180830381865afa1580156126d7573d6000803e3d6000fd5b505050506040513d6000823e601f3d9081017fffffffffffffffffffffffffffffffffffffffffffffffffffffffffffffffe016820160405261271d9190810190612ecd565b815260200182610100015173ffffffffffffffffffffffffffffffffffffffff1681525083838151811061275357612753612e9e565b602002602001018190525050808061276a90612f7f565b9150506125bf565b600061117e7f000000000000000000000000000000000000000000000000000000000000000073ffffffffffffffffffffffffffffffffffffffff1663026b1d5f6040518163ffffffff1660e01b8152600401602060405180830381865afa1580156127e2573d6000803e3d6000fd5b505050506040513d601f19601f820116820180604052508101906128069190612ae4565b6040517fc44b11f700000000000000000000000000000000000000000000000000000000815273ffffffffffffffffffffffffffffffffffffffff8581166004830152919091169063c44b11f790602401602060405180830381865afa158015612874573d6000803e3d6000fd5b505050506040513d601f19601f820116820180604052508101906128989190612beb565b5167400000000000000016151590565b60408051808201909152600281527f3734000000000000000000000000000000000000000000000000000000000000602082015260009060808310612923576040517f08c379a000000000000000000000000000000000000000000000000000000000815260040161291a9190612fb8565b60405180910390fd5b50509051600191821b82011c16151590565b73ffffffffffffffffffffffffffffffffffffffff8116811461295757600080fd5b50565b60006020828403121561296c57600080fd5b813561058381612935565b6000806040838503121561298a57600080fd5b823561299581612935565b915060208301356129a581612935565b809150509250929050565b60005b838110156129cb5781810151838201526020016129b3565b838111156129da576000848401525b50505050565b600081518084526129f88160208601602086016129b0565b601f017fffffffffffffffffffffffffffffffffffffffffffffffffffffffffffffffe0169290920160200192915050565b60006020808301818452808551808352604092508286019150828160051b87010184880160005b83811015612ac6577fffffffffffffffffffffffffffffffffffffffffffffffffffffffffffffffc089840301855281518051878552612a93888601826129e0565b9189015173ffffffffffffffffffffffffffffffffffffffff169489019490945294870194925090860190600101612a51565b509098975050505050505050565b8051612adf81612935565b919050565b600060208284031215612af657600080fd5b815161058381612935565b7f4e487b7100000000000000000000000000000000000000000000000000000000600052604160045260246000fd5b6040516101e0810167ffffffffffffffff81118282101715612b5457612b54612b01565b60405290565b604051601f82017fffffffffffffffffffffffffffffffffffffffffffffffffffffffffffffffe016810167ffffffffffffffff81118282101715612ba157612ba1612b01565b604052919050565b600060208284031215612bbb57600080fd5b6040516020810181811067ffffffffffffffff82111715612bde57612bde612b01565b6040529151825250919050565b600060208284031215612bfd57600080fd5b6105838383612ba9565b80516fffffffffffffffffffffffffffffffff81168114612adf57600080fd5b805164ffffffffff81168114612adf57600080fd5b805161ffff81168114612adf57600080fd5b60006101e08284031215612c6157600080fd5b612c69612b30565b612c738484612ba9565b8152612c8160208401612c07565b6020820152612c9260408401612c07565b6040820152612ca360608401612c07565b6060820152612cb460808401612c07565b6080820152612cc560a08401612c07565b60a0820152612cd660c08401612c27565b60c0820152612ce760e08401612c3c565b60e0820152610100612cfa818501612ad4565b90820152610120612d0c848201612ad4565b90820152610140612d1e848201612ad4565b90820152610160612d30848201612ad4565b90820152610180612d42848201612c07565b908201526101a0612d54848201612c07565b908201526101c0612d66848201612c07565b908201529392505050565b600060208284031215612d8357600080fd5b5051919050565b600060208284031215612d9c57600080fd5b61058382612c27565b7f4e487b7100000000000000000000000000000000000000000000000000000000600052601160045260246000fd5b60008219821115612de757612de7612da5565b500190565b60006020808385031215612dff57600080fd5b825167ffffffffffffffff80821115612e1757600080fd5b818501915085601f830112612e2b57600080fd5b815181811115612e3d57612e3d612b01565b8060051b9150612e4e848301612b5a565b8181529183018401918481019088841115612e6857600080fd5b938501935b83851015612e925784519250612e8283612935565b8282529385019390850190612e6d565b98975050505050505050565b7f4e487b7100000000000000000000000000000000000000000000000000000000600052603260045260246000fd5b600060208284031215612edf57600080fd5b815167ffffffffffffffff80821115612ef757600080fd5b818401915084601f830112612f0b57600080fd5b815181811115612f1d57612f1d612b01565b612f4e60207fffffffffffffffffffffffffffffffffffffffffffffffffffffffffffffffe0601f84011601612b5a565b9150808252856020828501011115612f6557600080fd5b612f768160208401602086016129b0565b50949350505050565b60007fffffffffffffffffffffffffffffffffffffffffffffffffffffffffffffffff821415612fb157612fb1612da5565b5060010190565b60208152600061058360208301846129e056fea2646970667358221220843f2f8698e1c0a6a7367da8ee568d358f4436a0d88534b0a91d6c3ca09f67e864736f6c634300080a0033",
  "devdoc": {
    "author": "Aave",
    "kind": "dev",
    "methods": {
      "constructor": {
        "params": {
          "addressesProvider": "The address of the PoolAddressesProvider contract"
        }
      },
      "getATokenTotalSupply(address)": {
        "params": {
          "asset": "The address of the underlying asset of the reserve"
        },
        "returns": {
          "_0": "The total supply of the aToken"
        }
      },
      "getAllATokens()": {
        "returns": {
          "_0": "The list of ATokens, pairs of symbols and addresses"
        }
      },
      "getAllReservesTokens()": {
        "details": "Handling MKR and ETH in a different way since they do not have standard `symbol` functions.",
        "returns": {
          "_0": "The list of reserves, pairs of symbols and addresses"
        }
      },
      "getDebtCeiling(address)": {
        "params": {
          "asset": "The address of the underlying asset of the reserve"
        },
        "returns": {
          "_0": "The debt ceiling of the reserve"
        }
      },
      "getDebtCeilingDecimals()": {
        "returns": {
          "_0": "The debt ceiling decimals"
        }
      },
      "getFlashLoanEnabled(address)": {
        "params": {
          "asset": "The address of the underlying asset of the reserve"
        },
        "returns": {
          "_0": "True if FlashLoans are enabled, false otherwise"
        }
      },
      "getInterestRateStrategyAddress(address)": {
        "params": {
          "asset": "The address of the underlying asset of the reserve"
        },
        "returns": {
          "irStrategyAddress": "The address of the Interest Rate strategy"
        }
      },
      "getLiquidationProtocolFee(address)": {
        "params": {
          "asset": "The address of the underlying asset of the reserve"
        },
        "returns": {
          "_0": "The protocol fee on liquidation"
        }
      },
      "getPaused(address)": {
        "params": {
          "asset": "The address of the underlying asset of the reserve"
        },
        "returns": {
          "isPaused": "True if the pool is paused, false otherwise"
        }
      },
      "getReserveCaps(address)": {
        "params": {
          "asset": "The address of the underlying asset of the reserve"
        },
        "returns": {
          "borrowCap": "The borrow cap of the reserve",
          "supplyCap": "The supply cap of the reserve"
        }
      },
      "getReserveConfigurationData(address)": {
        "details": "Not returning borrow and supply caps for compatibility, nor pause flag",
        "params": {
          "asset": "The address of the underlying asset of the reserve"
        },
        "returns": {
          "borrowingEnabled": "True if borrowing is enabled, false otherwise",
          "decimals": "The number of decimals of the reserve",
          "isActive": "True if it is active, false otherwise",
          "isFrozen": "True if it is frozen, false otherwise",
          "liquidationBonus": "The liquidationBonus of the reserve",
          "liquidationThreshold": "The liquidationThreshold of the reserve",
          "ltv": "The ltv of the reserve",
          "reserveFactor": "The reserveFactor of the reserve",
          "stableBorrowRateEnabled": "True if stable rate borrowing is enabled, false otherwise",
          "usageAsCollateralEnabled": "True if the usage as collateral is enabled, false otherwise"
        }
      },
      "getReserveData(address)": {
        "params": {
          "asset": "The address of the underlying asset of the reserve"
        },
        "returns": {
          "accruedToTreasuryScaled": "The scaled amount of tokens accrued to treasury that is to be minted",
          "averageStableBorrowRate": "The average stable borrow rate of the reserve",
          "lastUpdateTimestamp": "The timestamp of the last update of the reserve",
          "liquidityIndex": "The liquidity index of the reserve",
          "liquidityRate": "The liquidity rate of the reserve",
          "stableBorrowRate": "The stable borrow rate of the reserve",
          "totalAToken": "The total supply of the aToken",
          "totalStableDebt": "The total stable debt of the reserve",
          "totalVariableDebt": "The total variable debt of the reserve",
          "unbacked": "The amount of unbacked tokens",
          "variableBorrowIndex": "The variable borrow index of the reserve",
          "variableBorrowRate": "The variable borrow rate of the reserve"
        }
      },
      "getReserveEModeCategory(address)": {
        "params": {
          "asset": "The address of the underlying asset of the reserve"
        },
        "returns": {
          "_0": "The eMode id of the reserve"
        }
      },
      "getReserveTokensAddresses(address)": {
        "params": {
          "asset": "The address of the underlying asset of the reserve"
        },
        "returns": {
          "aTokenAddress": "The AToken address of the reserve",
          "stableDebtTokenAddress": "The StableDebtToken address of the reserve",
          "variableDebtTokenAddress": "The VariableDebtToken address of the reserve"
        }
      },
      "getSiloedBorrowing(address)": {
        "params": {
          "asset": "The address of the underlying asset of the reserve"
        },
        "returns": {
          "_0": "True if the asset is siloed for borrowing"
        }
      },
      "getTotalDebt(address)": {
        "params": {
          "asset": "The address of the underlying asset of the reserve"
        },
        "returns": {
          "_0": "The total debt for asset"
        }
      },
      "getUnbackedMintCap(address)": {
        "params": {
          "asset": "The address of the underlying asset of the reserve"
        },
        "returns": {
          "_0": "The unbacked mint cap of the reserve"
        }
      },
      "getUserReserveData(address,address)": {
        "params": {
          "asset": "The address of the underlying asset of the reserve",
          "user": "The address of the user"
        },
        "returns": {
          "currentATokenBalance": "The current AToken balance of the user",
          "currentStableDebt": "The current stable debt of the user",
          "currentVariableDebt": "The current variable debt of the user",
          "liquidityRate": "The liquidity rate of the reserve",
          "principalStableDebt": "The principal stable debt of the user",
          "scaledVariableDebt": "The scaled variable debt of the user",
          "stableBorrowRate": "The stable borrow rate of the user",
          "stableRateLastUpdated": "The timestamp of the last update of the user stable rate",
          "usageAsCollateralEnabled": "True if the user is using the asset as collateral, false         otherwise"
        }
      }
    },
    "stateVariables": {
      "ADDRESSES_PROVIDER": {
        "return": "The address for the PoolAddressesProvider contract",
        "returns": {
          "_0": "The address for the PoolAddressesProvider contract"
        }
      }
    },
    "title": "AaveProtocolDataProvider",
    "version": 1
  },
  "userdoc": {
    "kind": "user",
    "methods": {
      "ADDRESSES_PROVIDER()": {
        "notice": "Returns the address for the PoolAddressesProvider contract."
      },
      "constructor": {
        "notice": "Constructor"
      },
      "getATokenTotalSupply(address)": {
        "notice": "Returns the total supply of aTokens for a given asset"
      },
      "getAllATokens()": {
        "notice": "Returns the list of the existing ATokens in the pool."
      },
      "getAllReservesTokens()": {
        "notice": "Returns the list of the existing reserves in the pool."
      },
      "getDebtCeiling(address)": {
        "notice": "Returns the debt ceiling of the reserve"
      },
      "getDebtCeilingDecimals()": {
        "notice": "Returns the debt ceiling decimals"
      },
      "getFlashLoanEnabled(address)": {
        "notice": "Returns whether the reserve has FlashLoans enabled or disabled"
      },
      "getInterestRateStrategyAddress(address)": {
        "notice": "Returns the address of the Interest Rate strategy"
      },
      "getLiquidationProtocolFee(address)": {
        "notice": "Returns the protocol fee on the liquidation bonus"
      },
      "getPaused(address)": {
        "notice": "Returns if the pool is paused"
      },
      "getReserveCaps(address)": {
        "notice": "Returns the caps parameters of the reserve"
      },
      "getReserveConfigurationData(address)": {
        "notice": "Returns the configuration data of the reserve"
      },
      "getReserveData(address)": {
        "notice": "Returns the reserve data"
      },
      "getReserveEModeCategory(address)": {
        "notice": "Returns the efficiency mode category of the reserve"
      },
      "getReserveTokensAddresses(address)": {
        "notice": "Returns the token addresses of the reserve"
      },
      "getSiloedBorrowing(address)": {
        "notice": "Returns the siloed borrowing flag"
      },
      "getTotalDebt(address)": {
        "notice": "Returns the total debt for a given asset"
      },
      "getUnbackedMintCap(address)": {
        "notice": "Returns the unbacked mint cap of the reserve"
      },
      "getUserReserveData(address,address)": {
        "notice": "Returns the user data in a reserve"
      }
    },
    "notice": "Peripheral contract to collect and pre-process information from the Pool.",
    "version": 1
  },
  "storageLayout": {
    "storage": [],
    "types": null
  }
}