{
  "address": "0x1Eafa77d78f4d34EE1e47EbAdE883060ffDFE19f",
  "abi": [
    {
      "inputs": [
        {
          "internalType": "address",
          "name": "user",
          "type": "address"
        },
        {
          "internalType": "address",
          "name": "token",
          "type": "address"
        }
      ],
      "name": "balanceOf",
      "outputs": [
        {
          "internalType": "uint256",
          "name": "",
          "type": "uint256"
        }
      ],
      "stateMutability": "view",
      "type": "function"
    },
    {
      "inputs": [
        {
          "internalType": "address[]",
          "name": "users",
          "type": "address[]"
        },
        {
          "internalType": "address[]",
          "name": "tokens",
          "type": "address[]"
        }
      ],
      "name": "batchBalanceOf",
      "outputs": [
        {
          "internalType": "uint256[]",
          "name": "",
          "type": "uint256[]"
        }
      ],
      "stateMutability": "view",
      "type": "function"
    },
    {
      "inputs": [
        {
          "internalType": "address",
          "name": "provider",
          "type": "address"
        },
        {
          "internalType": "address",
          "name": "user",
          "type": "address"
        }
      ],
      "name": "getUserWalletBalances",
      "outputs": [
        {
          "internalType": "address[]",
          "name": "",
          "type": "address[]"
        },
        {
          "internalType": "uint256[]",
          "name": "",
          "type": "uint256[]"
        }
      ],
      "stateMutability": "view",
      "type": "function"
    },
    {
      "stateMutability": "payable",
      "type": "receive"
    }
  ],
  "transactionHash": "0x81a0c8fdbaeee075a1d46eeb4a8fb6c9ab54bf7f2c02c881606b988f150a9d47",
  "args": [],
  "numDeployments": 1,
  "solcInputHash": "1eaa4365c44e38f8790053afb1c34d22",
  "bytecode": "0x608060405234801561001057600080fd5b50610cdc806100206000396000f3fe6080604052600436106100385760003560e01c806302405343146100b1578063b59b28ef146100e8578063f7888aec1461011557600080fd5b366100ac57333b6100aa576040517f08c379a000000000000000000000000000000000000000000000000000000000815260206004820152600260248201527f323200000000000000000000000000000000000000000000000000000000000060448201526064015b60405180910390fd5b005b600080fd5b3480156100bd57600080fd5b506100d16100cc366004610849565b610143565b6040516100df9291906108bd565b60405180910390f35b3480156100f457600080fd5b5061010861010336600461096f565b61059d565b6040516100df91906109db565b34801561012157600080fd5b50610135610130366004610849565b6106b6565b6040519081526020016100df565b60608060008473ffffffffffffffffffffffffffffffffffffffff1663026b1d5f6040518163ffffffff1660e01b8152600401602060405180830381865afa158015610193573d6000803e3d6000fd5b505050506040513d601f19601f820116820180604052508101906101b791906109f5565b905060008173ffffffffffffffffffffffffffffffffffffffff1663d1946dbc6040518163ffffffff1660e01b8152600401600060405180830381865afa158015610206573d6000803e3d6000fd5b505050506040513d6000823e601f3d9081017fffffffffffffffffffffffffffffffffffffffffffffffffffffffffffffffe016820160405261024c9190810190610a90565b905060008151600161025e9190610b71565b67ffffffffffffffff81111561027657610276610a12565b60405190808252806020026020018201604052801561029f578160200160208202803683370190505b50905060005b8251811015610311578281815181106102c0576102c0610b89565b60200260200101518282815181106102da576102da610b89565b73ffffffffffffffffffffffffffffffffffffffff909216602092830291909101909101528061030981610bb8565b9150506102a5565b5073eeeeeeeeeeeeeeeeeeeeeeeeeeeeeeeeeeeeeeee8183518151811061033a5761033a610b89565b602002602001019073ffffffffffffffffffffffffffffffffffffffff16908173ffffffffffffffffffffffffffffffffffffffff16815250506000815167ffffffffffffffff81111561039057610390610a12565b6040519080825280602002602001820160405280156103b9578160200160208202803683370190505b50905060005b83518110156105515760008573ffffffffffffffffffffffffffffffffffffffff1663c44b11f78584815181106103f8576103f8610b89565b60200260200101516040518263ffffffff1660e01b8152600401610438919073ffffffffffffffffffffffffffffffffffffffff91909116815260200190565b602060405180830381865afa158015610455573d6000803e3d6000fd5b505050506040513d601f19601f820116820180604052508101906104799190610bf1565b905060006104c98251670100000000000000811615159167020000000000000082161515916704000000000000008116151591670800000000000000821615159167100000000000000016151590565b505050509050806104fb5760008484815181106104e8576104e8610b89565b602002602001018181525050505061053f565b61051e8a86858151811061051157610511610b89565b60200260200101516106b6565b84848151811061053057610530610b89565b60200260200101818152505050505b8061054981610bb8565b9150506103bf565b506105708773eeeeeeeeeeeeeeeeeeeeeeeeeeeeeeeeeeeeeeee6106b6565b8184518151811061058357610583610b89565b6020908102919091010152909450925050505b9250929050565b606060006105ab8386610c33565b67ffffffffffffffff8111156105c3576105c3610a12565b6040519080825280602002602001820160405280156105ec578160200160208202803683370190505b50905060005b858110156106ac5760005b848110156106995761065688888481811061061a5761061a610b89565b905060200201602081019061062f9190610c70565b87878481811061064157610641610b89565b90506020020160208101906101309190610c70565b83826106628886610c33565b61066c9190610b71565b8151811061067c5761067c610b89565b60209081029190910101528061069181610bb8565b9150506105fd565b50806106a481610bb8565b9150506105f2565b5095945050505050565b600073ffffffffffffffffffffffffffffffffffffffff821673eeeeeeeeeeeeeeeeeeeeeeeeeeeeeeeeeeeeeeee1415610708575073ffffffffffffffffffffffffffffffffffffffff82163161081e565b73ffffffffffffffffffffffffffffffffffffffff82163b156107bc576040517f70a0823100000000000000000000000000000000000000000000000000000000815273ffffffffffffffffffffffffffffffffffffffff84811660048301528316906370a0823190602401602060405180830381865afa158015610791573d6000803e3d6000fd5b505050506040513d601f19601f820116820180604052508101906107b59190610c8d565b905061081e565b6040517f08c379a000000000000000000000000000000000000000000000000000000000815260206004820152600d60248201527f494e56414c49445f544f4b454e0000000000000000000000000000000000000060448201526064016100a1565b92915050565b73ffffffffffffffffffffffffffffffffffffffff8116811461084657600080fd5b50565b6000806040838503121561085c57600080fd5b823561086781610824565b9150602083013561087781610824565b809150509250929050565b600081518084526020808501945080840160005b838110156108b257815187529582019590820190600101610896565b509495945050505050565b604080825283519082018190526000906020906060840190828701845b8281101561090c57815173ffffffffffffffffffffffffffffffffffffffff16845292840192908401906001016108da565b505050838103828501526109208186610882565b9695505050505050565b60008083601f84011261093c57600080fd5b50813567ffffffffffffffff81111561095457600080fd5b6020830191508360208260051b850101111561059657600080fd5b6000806000806040858703121561098557600080fd5b843567ffffffffffffffff8082111561099d57600080fd5b6109a98883890161092a565b909650945060208701359150808211156109c257600080fd5b506109cf8782880161092a565b95989497509550505050565b6020815260006109ee6020830184610882565b9392505050565b600060208284031215610a0757600080fd5b81516109ee81610824565b7f4e487b7100000000000000000000000000000000000000000000000000000000600052604160045260246000fd5b604051601f82017fffffffffffffffffffffffffffffffffffffffffffffffffffffffffffffffe016810167ffffffffffffffff81118282101715610a8857610a88610a12565b604052919050565b60006020808385031215610aa357600080fd5b825167ffffffffffffffff80821115610abb57600080fd5b818501915085601f830112610acf57600080fd5b815181811115610ae157610ae1610a12565b8060051b9150610af2848301610a41565b8181529183018401918481019088841115610b0c57600080fd5b938501935b83851015610b365784519250610b2683610824565b8282529385019390850190610b11565b98975050505050505050565b7f4e487b7100000000000000000000000000000000000000000000000000000000600052601160045260246000fd5b60008219821115610b8457610b84610b42565b500190565b7f4e487b7100000000000000000000000000000000000000000000000000000000600052603260045260246000fd5b60007fffffffffffffffffffffffffffffffffffffffffffffffffffffffffffffffff821415610bea57610bea610b42565b5060010190565b600060208284031215610c0357600080fd5b6040516020810181811067ffffffffffffffff82111715610c2657610c26610a12565b6040529151825250919050565b6000817fffffffffffffffffffffffffffffffffffffffffffffffffffffffffffffffff0483118215151615610c6b57610c6b610b42565b500290565b600060208284031215610c8257600080fd5b81356109ee81610824565b600060208284031215610c9f57600080fd5b505191905056fea2646970667358221220d2b395fa8040573d642d2219524a6138c92d1d4d6a144bb3839dc20bd53c4bd164736f6c634300080a0033",
  "devdoc": {
    "author": "Aave, influenced by https://github.com/wbobeirne/eth-balance-checker/blob/master/contracts/BalanceChecker.sol",
    "details": "NOTE: THIS CONTRACT IS NOT USED WITHIN THE AAVE PROTOCOL. It's an accessory contract used to reduce the number of calls towards the blockchain from the Aave backend.*",
    "kind": "dev",
    "methods": {
      "balanceOf(address,address)": {
        "details": "Check the token balance of a wallet in a token contract Returns the balance of the token for user. Avoids possible errors: - return 0 on non-contract address*"
      },
      "batchBalanceOf(address[],address[])": {
        "params": {
          "tokens": "The list of tokens",
          "users": "The list of users"
        },
        "returns": {
          "_0": "And array with the concatenation of, for each user, his/her balances*"
        }
      },
      "getUserWalletBalances(address,address)": {
        "details": "provides balances of user wallet for all reserves available on the pool"
      }
    },
    "title": "WalletBalanceProvider contract",
    "version": 1
  },
  "userdoc": {
    "kind": "user",
    "methods": {
      "batchBalanceOf(address[],address[])": {
        "notice": "Fetches, for a list of _users and _tokens (ETH included with mock address), the balances"
      }
    },
    "notice": "Implements a logic of getting multiple tokens balance for one user address",
    "version": 1
  },
  "storageLayout": {
    "storage": [],
    "types": null
  }
}